:020000040800F2
:10000000200B0024AD02000851650008A160000823
:1000100049650008810C0008A9850008000000005F
:10002000000000000000000000000000F967000868
:10003000E917000800000000596500080168000881
:10004000C7020008C7020008C7020008C70200086C
:10005000C7020008C7020008C7020008C70200085C
:10006000C7020008C7020008C7020008890C000880
:10007000990C0008C7020008C7020008C702000860
:10008000C7020008C7020008C7020008C70200082C
:10009000C7020008C7020008C7020008C70200081C
:1000A000C7020008C7020008C7020008C70200080C
:1000B000A9690008B9690008C7020008C70200085A
:1000C000C7020008C7020008C7020008C7020008EC
:1000D000C70200087985000889850008C702000862
:1000E000C7020008C702000800000000C70200089D
:1000F000C7020008C7020008C7020008C7020008BC
:10010000C7020008C7020008C7020008C7020008AB
:10011000C7020008316B0008C7020008C7020008C8
:10012000C7020008C7020008C7020008C70200088B
:10013000C7020008C7020008C7020008C70200087B
:1001400000000000000000000000000000000000AF
:10015000C7020008C7020008C70200089985000806
:10016000C7020008C7020008C7020008C70200084B
:10017000C7020008C7020008C7020008C70200083B
:10018000C7020008C7020008416B0008C702000848
:10019000C7020008C7020008C7020008C70200081B
:1001A000C7020008C7020008C7020008C70200080B
:1001B000C7020008C7020008C7020008C7020008FB
:1001C000C7020008C7020008C7020008C7020008EB
:1001D000C7020008C7020008C7020008C7020008DB
:1001E000C7020008C7020008C7020008C7020008CB
:1001F000C7020008C7020008C7020008C7020008BB
:10020000C7020008C7020008C7020008C7020008AA
:10021000C7020008C7020008C7020008C70200089A
:10022000C7020008C7020008C7020008000000005B
:10023000C7020008C702000800000000C70200084B
:10024000C7020008C7020008C7020008C70200086A
:10025000C7020008C7020008C7020008C70200085A
:10026000C7020008C7020008C7020008C70200084A
:10027000C7020008C7020008C7020008000000000B
:10028000C7020008C7020008C702000800000000FB
:1002900000000000C7020008DFF80CD000F012F9DF
:1002A0000048004701860008200B002406488047CC
:1002B00006480047FEE7FEE7FEE7FEE7FEE7FEE74B
:1002C000FEE7FEE7FEE7FEE729690008990200085D
:1002D0002DE9F05F0546002092469B46884606467B
:1002E000814640241BE0284641464746224600F00E
:1002F00084F853465A46C01A914110D31146184605
:10030000224600F06BF82D1A67EB01084F46224693
:100310000120002100F062F817EB00094E41201E79
:10032000A4F10104DFDC484631462A464346BDE8D5
:10033000F09FD2B201E000F8012B491EFBD27047BA
:100340000022F6E710B513460A4604461946FFF7A1
:10035000F0FF204610BD30B505462A460B4612F880
:10036000010B13F8014B08B1A042F8D01CB10028D2
:1003700002D06D1CF1E7284630BD30B5054600209F
:10038000034600E05B1C934205D2EC5CC85C201A7B
:1003900001D1002CF6D130BD70B50F4D00B92868E1
:1003A000002412E00A4602E09E4203D0521C137859
:1003B000002BF9D1DAB2224305D02BB124B10021B0
:1003C00000F8011B04E00446401C0678002EE9D129
:1003D0002860204670BD000000000024202A04DBB5
:1003E000203A00FA02F1002070479140C2F1200348
:1003F00020FA03F3194390407047202A04DB203A87
:1004000021FA02F00021704721FA02F3D040C2F134
:100410002002914008431946704700000FB40B00BA
:1004200010B58AB00FA900910E994FF00004234A2D
:10043000CC60214CCDE9064200D004236FF000428D
:10044000CDE901321E4A089202466B46002000F0B8
:10045000EBF80AB010BC5DF814FBF0B585B00746A8
:100460004FF0FF300091CDE901011E4600201546F6
:100470000C4604903B466A46314604A8FFF7CEFF7F
:1004800004990346601825B109B1024600E02246EE
:100490002A6000290ED0002B02DD0099814209D08C
:1004A0000094001BCDE901043B466A46314604A88E
:1004B000FFF7B4FF05B0F0BD610800087F08000831
:1004C000F50400081CB5094800900948019005464C
:1004D000009C06E0E06840F0010394E807009847BC
:1004E0001034AC42F6D3FFF7DBFE00003C9000086E
:1004F0005C900008C0B24FF4F05100F0D1B9000098
:100500002DE9FF4F087883B09946FF2805D0491C94
:100510002D2804D00024002008E000200BE0012456
:10052000F9E700EB800003EB4000491C0B78FF2B40
:10053000F7D104B1404200230293147819461D46B6
:100540002D2C01D02B2C04D1521C2D2C13D0002487
:100550000294AA461478FF2C0FD00A25A3FB057835
:1005600001FB05814FF0000C03FB0C11521CE31939
:100570004AEB0101EEE70124EAE7814453EA010076
:1005800002D019F5C87F06DA03980021C0E90011EE
:1005900007B0BDE8F08F0025AE4E2F46DFF8B882D9
:1005A000184600F072FACDE90001B9F1000002DA54
:1005B000C9F1000400E004460023A74A1AEB030B2C
:1005C00042EB045A12E0E00707D02A463346384689
:1005D000414600F079F9074688462A4633461046D8
:1005E000194600F071F905460E466410002CEAD158
:1005F000DDE90001B9F1000F5A46534606DA00F072
:10060000D5F93A46434600F0D1F905E000F05CF92F
:100610003A46434600F058F9029A0AB181F0004187
:10062000039AC2E90001B3E72DE9FF4F1F468DB0E1
:10063000D7E901464FF0FF382E2045464FF000091C
:100640000B90B9696D1C0E988847396A82468847B5
:100650000028F6D1BAF1FF3F0AD024F4D064002E6E
:1006600011DDBAF12B0F08D0BAF12D0F0BD102E03A
:10067000404611B08DE744F48064B9696D1C0E9852
:1006800088478246761E6946600501D52D2000E028
:100690002B208DF8000001F1010B0DF1200809E07D
:1006A000B9696D1C0E98884782460F9844F400740F
:1006B000761E0560002E02DDBAF1300FF0D00B99E6
:1006C0008A453ED144F0800406E00F99681CA9F1E8
:1006D000010944F400740860B9696D1C761E0E9817
:1006E000884782463028F0D02BE00B998A4505D107
:1006F000200603D444F08004761E18E0504608F02B
:1007000041FC08B30DF11302761EAAF1300044F447
:100710000074934506D20BF8010B200607D5A9F10A
:10072000010003E0200602D409F101008146A00582
:1007300002D50F99681C0860B9696D1C0E9888472E
:100740008246002ED1DC53E0002E51DDBAF1650F58
:1007500002D0BAF1450F4BD1A00549D5B9696D1C3E
:1007600024F44074761E0E9888478246002E0CDDD5
:100770002B2804D0BAF12D0F07D144F48074B96945
:100780006D1C0E9888478246761EE00501D52D2106
:1007900000E02B2108F8011BCDF82C8021E00DF1A1
:1007A0002901761E44F4007488450CD2AAF1300069
:1007B00010F0FF0088F8000002D10B99884509D994
:1007C00008F1010806E0E00501D5244801E042F205
:1007D0000F708146B9696D1C0E98884782460F9844
:1007E0000560002E04DD504608F0CCFB0028D6D171
:1007F000F9690E988847FF208BF8000088F8000000
:100800000020069007904B466A4608A906A8FFF705
:1008100077FEA00502D46FF001002AE714F0240F40
:100820000AD0E00714D1DDE906123868031D3B60E9
:100830000068C0E900120BE0DDE9060100F031F9C3
:100840000146E00704D13868021D3A600068016083
:1008500028460EE7000014400000F03FF1D8FFFFEB
:10086000426842B1016811F8013B23B1521EC0E950
:100870000012184670470121C160881E7047426807
:100880005AB1C368016843B983688B4205D0491ED9
:10089000521CC0E90012002070474FF0FF30704733
:1008A0007F2801D9002208E0064A02EB5002C00767
:1008B000127800D1120902F00F0201209040084086
:1008C00070470000B48F00082DE9FE4F81EA030451
:1008D00004F0004421F0004100944FF0000B23F09D
:1008E000004350EA01045ED052EA03045BD0C3F334
:1008F0000A54C1F30A552C44A4F2F3340194A0FB2A
:100900000254C1F3130141F48011C3F3130343F400
:10091000801301FB024400FB034E840A970A44EA59
:10092000815447EA8357A4FB076802958D0A05FBAB
:1009300007854FEA932C04FB0C542705029D4FEAD0
:10094000065847EA1637B5EB08056EEB070C870E1D
:10095000920E47EA811742EA8312A7FB0201B6EB27
:100960000B0164EB00042B0D43EA0C335E1844EBDF
:100970001C50DA465146E7FB0201C5F313044FEA67
:100980000B3343EA14534FEA0432019C43EA060353
:10099000A4F10C040294009CCDE900B400F0E3F84B
:1009A00003B0BDE8F08F00200146F9E72DE9F04DD6
:1009B00081EA030404F0004B21F0004514464FF097
:1009C000000A23F0004150EA050220D054EA010257
:1009D0001DD0C5F30A570246C5F31303C1F3130034
:1009E000C1F30A5640F4801543F48013A7EB0608C0
:1009F000101BD64608F2FD3873EB050002D308F150
:100A0000010801E092185B41B8F1000F03DA002001
:100A10000146BDE8F08D00204FF480110646844663
:100A20000EE0171B73EB050705D3121B63EB0503E1
:100A300006434CEA010C49084FEA300092185B412A
:100A400050EA0107EDD152EA030012D082EA040015
:100A500083EA0501084305D0101BAB4106D20122F1
:100A6000002306E000224FF0004302E06FF0010295
:100A700053101AEB06004CEB085110EB0A0041EB47
:100A80000B01BDE8F04D00F05FB80EB540F2334207
:100A900002920022CDE90022134600F064F803B070
:100AA00000BD01F0004330B421F0004150EA0102E2
:100AB00006D00A0DA2F56072C1F31301002A02DC10
:100AC00030BC00207047440F44EAC104C100E01864
:100AD00030BC00EBC250AFF300800029A8BF7047C4
:100AE000401C490008BF20F00100704710B4B0FA64
:100AF00080FC00FA0CF050EA010404BF10BC7047FF
:100B000049B1CCF1200421FA04F411FA0CF118BF18
:100B1000012121430843A3EB0C01CB1D4FEA0061E7
:100B20004FEA102042BF002010BC704700EBC350BA
:100B300010440029A4BF10BC7047401C490008BFE6
:100B400020F0010010BC704710B5141E73F10004B2
:100B500008DA401C41F1000192185B411A4301D1AF
:100B600020F0010010BD2DE9F04D92469B4611B1D9
:100B7000B1FA81F202E0B0FA80F220329046FFF73B
:100B80002DFC04460F4640EA0A0041EA0B01534699
:100B90005A46084313D0114653EA010019D0C8F150
:100BA00040025046FFF729FC05460E46504659467E
:100BB0004246FFF713FC084305D0012004E020461D
:100BC0003946BDE8F08D0020054346EAE0762C4327
:100BD00037430A986305E40AA0EB08000022FD0AE7
:100BE00044EA47540A3002D500200146E9E70105EE
:100BF00010196941DDE9084500196941BDE8F04D6A
:100C0000A2E700000000000080B540F2BC0C90F8A4
:100C100004E0C2F2004C00229FED171BCCF800202C
:100C20008CF808E0C3788CF80930817803F07F03F2
:100C30008CF80A10DB01427843EA8E338CF80B20E3
:100C400001F07F010078194402F07F028CF80C005B
:100C5000D20142EA813100F07F021144CCF8041045
:100C600000EE101AB8EEC00B80EE010BB7EEC00B11
:100C70008CED000A80BD00BF00000014CAA99F418E
:100C8000FEE700000000000040F26820C2F20040D1
:100C900001F0DEB90000000040F2E020C2F20040A6
:100CA00001F0D6B90000000040F20F42D0F800C0B9
:100CB000C4F20202944511DC6F22C4F20202944590
:100CC00022DC3F22C4F20202944539DC1022C4F235
:100CD000020294455AD0282254E000BF40F26F42ED
:100CE000C4F2020294451BDC40F23F42C4F202020D
:100CF00094452DDC40F21042C4F20202944545D0E6
:100D000040F228423EE000BF9F22C4F20202944516
:100D100028DC7022C4F20202944537D0882231E0E8
:100D200040F29F42C4F20202944523DC40F270423A
:100D3000C4F20202944529D040F2884222E000BF6A
:100D40004022C4F20202944520D058221AE000BF8B
:100D500040F24042C4F20202944517D040F2584299
:100D600010E000BFA022C4F2020294450ED0B822C7
:100D700008E000BF40F2B842C4F20202944505D038
:100D800040F2A042C4F20202944517D10CF0F802DE
:100D90004AF6AB23103ACAF6AA23A2FB03310AA3F0
:100DA0005F2AC1F302115B5C40F2FF312CEA0101C2
:100DB000C36588BF04318165084670472CF0FF0188
:100DC00081650846704700BF000610160006101621
:100DD000002818BF002901D1704700BFD0E90023C7
:100DE00080688860C1E900237047000000000000AF
:100DF000002808BF704710B5C0210446FFF7A0FACD
:100E000040F20110A4F8BC00012084F8BE004DF2AD
:100E10000A704CF6CD41C3F62340C3F64C61C4E9D9
:100E20003001BDE8104070472DE9F04F002818BF91
:100E3000002A05D100209060C2E90000BDE8F08FD3
:100E400090F85130002BF5D0012B07D1D0E90013D9
:100E500080689060C2E90013BDE8F08F90F850C040
:100E600046F2676800F13C0E013B0CF10404C6F247
:100E7000666803E0013BA4F1010420D054FB08F5AF
:100E80006E1006EBD57505EB8505A4EB050A5EF83B
:100E90002AB08B45EED8671C57FB08F6751005EB9A
:100EA000D67505EB8505A7EB05095EF82970B942F3
:100EB000E0D81AF1010318BF19F101030CD10CEBB2
:100EC0004C0100EB810350F821001060D3E90101CF
:100ED000C2E90101BDE8F08F00EE10BA09EB490349
:100EE000B8EE401A00EE107AB8EE402A00EE101A62
:100EF0000AEB4A01B8EE400A00EB810132EE415A9A
:100F000000EB8300B4EE412A30EE414A91ED000A35
:100F1000F1EE10FA18DD84EE053A9FED536AD0ED3C
:100F2000010A91ED017A70EEC70A83FE063AB7EE28
:100F3000006A83FE463A90ED006A36EE406AA3EE00
:100F4000207AA3EE060A01E091ED017A82ED000A13
:100F50009FED463A91ED020A90ED026A76EE400A64
:100F600082ED017AF4EE430AF1EE10FA02DD9FED14
:100F7000427A13E09FED3E7AF4EE470AF1EE10FA62
:100F80000ADBB4EE412AF1EE10FA0EDCB4EE430AAD
:100F9000F1EE10FA1CDC39E09FED367A36EE076A86
:100FA000B4EE412AF1EE10FAF0DD84EE051A9FED61
:100FB0002E2A81FE021AB7EE002A81FE421A36EE70
:100FC000402AA1EE020AB4EE430AF1EE10FA1DDD4A
:100FD0009FED291A30EE010AB4EE430AF1EE10FA41
:100FE000C1BF30EE010AB4EE430AF1EE10FA30EE62
:100FF000010AC4BFB4EE430AF1EE10FA06DD30EE8A
:10100000010AB4EE430AF1EE10FAE3DC9FED181A80
:1010100082ED020AB4EE410AF1EE10FAA8BFBDE873
:10102000F08F9FED142A30EE020AB4EE410AF1EE81
:1010300010FA14DA30EE020AB4EE410AF1EE10FAB8
:10104000BEBF30EE020AB4EE410AF1EE10FA06DA43
:1010500030EE020AB4EE410AF1EE10FAE3DB82ED63
:10106000020ABDE8F08F00BF00000000DB0F49401E
:10107000DB0F49C0DB0FC940DB0FC9C00000000017
:10108000002818BF002901D1704700BFD1E9002313
:101090008968C0F8C410C0E92F2370470000000021
:1010A000002818BF002901D1704700BFB0B590F8E3
:1010B000A83003F1010C43F234330CFB03F31B0C97
:1010C00003EB8303ACEB030480F8A8401FFA84FE13
:1010D00090F8A9C04FEA4E0313FA84F3BCF1040F51
:1010E000D1E9004500EB83038968C3E9164500EBAD
:1010F0008E051966C5F89420BDE8B04003D80CF100
:10110000010180F8A910C0F8B0207047000000006D
:10111000002818BF80ED020A7047000000000000A0
:10112000002808BF70472DE9F0472DED108B84B0E3
:1011300090F8555082461DB39AF8A90000B39AF86A
:10114000B8000AF1240E00280AF158001ED0DAF87F
:10115000B4209FEDF11A8A1A00EE102AB8EE400A68
:1011600080EE01EAB5EE40EAF1EE10FA06DD9AED06
:10117000310AB4EE40EAF1EE10FA1BDDCAF8B41001
:1011800004B0BDEC108BBDE8F04770479AF8BD2065
:10119000CAF8B410002A4FF001028AF8B82019D01A
:1011A000012D33D19AED09EADAED0A8A55469AED16
:1011B0000BFA62E09AF8BD20002A00F0C980012DE8
:1011C00040F0E2809AED09FADAED0A8A5446DAED47
:1011D0000B9A10E19AF854109AF8A820554601EBA2
:1011E000410102EB42020EEB810100EB820350F859
:1011F000220091ED00EAD1ED018A91ED02FA019011
:10120000D3E90102029003923AE000BF9AF854C079
:1012100045F256580AF14809013D0CF10303C5F2A5
:10122000555802E0013D23461CD05C1E54FB08F2D9
:1012300002EBD27202EB4202A71A59F827608E42E3
:10124000F0D853FB08F202EBD27202EB42029B1A77
:1012500059F823209142E5D87C1C18BF13F10104F2
:1012600040F07A810CEB4C0255460EEB820292ED77
:1012700000EAD2ED018A92ED02FA01AAFFF7D4FD4D
:101280009DED018AB0EE480A07F032FCB0EE409ABC
:10129000B0EE480A07F0D4FC9DED02AAB0EE408AF9
:1012A000B0EE4A0A07F024FCB0EE40BAB0EE4A0AAB
:1012B00007F0C6FC9DED03CAB0EE40AAB0EE4C0AA2
:1012C00007F016FCB0EE40DAB0EE4C0A07F0B8FCBE
:1012D0002AEE0D1A29EE402A28EE003A29EE0D5A80
:1012E000A1EE082AA1EE093A2AEE001A28EE4D6A6C
:1012F0002BEE0D4AA1EE085AA1EE096A28EE821AD9
:1013000028EE0B2A2BEE000AA4EE0E1A28EE854AD0
:1013100028EE822A29EE0B7AA3EE0F1AA0EE0E4ACF
:10132000AAEE4E2A85ED031AA6EE0F4AA7EE0F2A63
:1013300085ED044AE86885ED052AA8612869E86119
:101340006869286204B0BDEC108BBDE8F0477047B7
:101350000D469AF854109AF8A82001EB410102EBCF
:1013600042020EEB810100EB820350F8220091ED66
:1013700000FAD1ED018AD1ED029A0190D3E9010280
:10138000029003923CE000BF9AF854C045F25658D0
:101390000AF14809013D0CF10303C5F2555802E07A
:1013A000013D23461CD05C1E54FB08F202EBD272B6
:1013B00002EB4202A71A59F827608E42F0D853FB7D
:1013C00008F202EBD27202EB42029B1A59F8232078
:1013D0009142E5D87C1C18BF13F1010440F0048150
:1013E0000CEB4C0254460EEB820292ED00FAD2ED69
:1013F000018AD2ED029A01AA0D46FFF715FDA24619
:101400009DED019A0AF10C04B0EE490A07F070FB59
:10141000B0EE408AB0EE490A07F012FC9DED02BA28
:10142000B0EE40AAB0EE4B0A07F062FBB0EE409A75
:10143000B0EE4B0A07F004FC9DED03CAB0EE40BAD3
:10144000B0EE4C0A07F054FBB0EE40DAB0EE4C0AB6
:1014500007F0F6FB2BEE001A28EE0D2A2BEE0D3AC4
:1014600028EE404AA1EE0A2A2AEE4D5AA3EE0A4A75
:1014700029EE007AA1EE085A28EE821A2AEE002AF6
:1014800029EE0D6A28EE840AA7EE0F1AA3EE082AA9
:10149000A6EE0F0AA5EE291A28EE094AA2EE290A9D
:1014A0008AED041A2AEE092A21EE013A8AED030A8E
:1014B00028EE822AA0EE003AABEE4F2AB1EEC33AF4
:1014C000A4EE292A9AED304AB4EE443AF1EE10FA2D
:1014D0008AED052A08DA9FED681A0021B0EE410A6C
:1014E000CAF80C10CAF810109AF8BC10B1B19AEDF5
:1014F000062A9AED073A30EE020AB6EE002A31EEDD
:10150000031A9AED003A20EE020A21EE021AA0EE2A
:101510000E3A8AED003A07E000007A449AED002A7C
:10152000A0EE0E2A8AED002A9AED010ACAF8B450FC
:10153000A1EE0E0A2168CAF818106168CAF81C10DA
:10154000A1688AED010ACAF8201004B0BDEC108B26
:10155000BDE8F047704700BF00EE106A01EE102AA8
:1015600007EB47025546B8EE400A0EEB8206B8EE8E
:10157000411A96ED00EAB4EE401AF1EE10FA2DDDB4
:1015800002EE101A03EB4302D6ED018A96ED02FA41
:101590000EEB8202B8EE422A92ED023A33EE4F3A57
:1015A00032EE402A31EE400A9FED331A82EE000AF5
:1015B00092ED012A32EE682A80FE010AB7EE001A87
:1015C00080FE410A92ED001A31EE4E1AE0EE028AD8
:1015D000A0EE01EAA0EE03FA4FE600BFD6ED018AC5
:1015E00096ED02FA49E600BF00EE106A01EE102AFD
:1015F00007EB47025446B8EE400A0EEB8206B8EEFF
:10160000411A96ED00FAB4EE401AF1EE10FA2DDD13
:1016100002EE101A03EB4302D6ED018AD6ED029AD0
:101620000EEB8202B8EE422A92ED023A33EE693AAC
:1016300032EE402A31EE400A9FED0F1A82EE000A88
:1016400092ED012A32EE682A80FE010AB7EE001AF6
:1016500080FE410A92ED001A31EE4F1AE0EE028A46
:10166000A0EE01FAE0EE039AC5E600BFD6ED018ACE
:10167000D6ED029ABFE600BF0000000000000000A7
:10168000002818BF002901D1704700BFB0B590F8FD
:10169000543003F1010C45F256530CFB03F31B0CC1
:1016A00003EB4303ACEB030480F854401FFA84FEC1
:1016B00090F855C04FEA4E0313FA84F3BCF1020FC1
:1016C000D1E9004500EB83038968C3E9094500EBD4
:1016D0008E05D962AA64BDE8B04003D80CF10101BF
:1016E00080F85510C0F8AC207047000000000000E2
:1016F000844690F85000012818BF704780B5DCF888
:1017000044E0C1F800E0DCF848101160DCF84C104F
:10171000196000218CF85010BDE88040704700002F
:1017200080B55421FEF70CFE80BD000000000000D3
:101730000D2908BF7047B0B504460A2910D1B4F886
:10174000400048B10025255424A104222046FEF77C
:1017500014FE88B1A4F84050BDE8B040704700BF07
:10176000B4F840003E28F7D8421CA4F84020215489
:10177000BDE8B040704700BF49F23801201DC0F6F7
:101780000001FEF709FE0028E4D007F095F9B7EE56
:10179000C00B49F23801C0F60001002084ED110AA7
:1017A000FEF7FAFD0028D5D007F086F9B7EEC00B9A
:1017B00049F23801C0F60001002084ED120AFEF75C
:1017C000EBFD0028C6D007F077F9B7EEC00B01207B
:1017D00084ED130A84F85000BCE700BF3A42492C5C
:1017E0000000000000000000704700000000000042
:1017F000704700000000000010EE101A09BA0160E6
:10180000704700000000000040F2CC0040F21801D8
:10181000C2F20040C2F200414FF4FF72A0F84A2029
:10182000D1E90623C2640A6A03654B6A42658A6A83
:101830008365CB6AC0E917230A8EA0F8642091F86B
:10184000322080F8662091F8332080F867204A6BB8
:1018500082668A6BC266CA6B02670A6C4267496C11
:101860008167FF2180F87C107047000000000000B5
:101870002DE9F041044601F01FFC1CB3054694F825
:101880003500022822D140F20F472668C4F2020731
:1018900040F26F48BE426FF00E00C4F202081DDC39
:1018A0006F21C4F202018E422ADC3F21C4F2020100
:1018B0008E4241DC1021C4F202018E4263D0282105
:1018C0005CE000BF0120BDE8F08100BF80206065C2
:1018D0000120002184F83410BDE8F08146451BDC6E
:1018E00040F23F41C4F202018E422DDC40F2104131
:1018F000C4F202018E4246D040F228413EE000BFD1
:101900009F21C4F202018E4228DC7021C4F2020140
:101910008E4238D0882131E040F29F41C4F202016A
:101920008E4223DC40F27041C4F202018E422AD082
:1019300040F2884122E000BF4021C4F202018E4201
:1019400021D058211AE000BF40F24041C4F2020108
:101950008E4218D040F2584110E000BFA021C4F2DE
:1019600002018E420FD0B82108E000BF40F2B8411A
:10197000C4F202018E4206D040F2A041C4F202013C
:101980008E42314607D13146306820F01E0041F8C2
:10199000140B6FF080000A68464500EA02000860F8
:1019A0001ADC9F20C4F20200864233DC5720C4F2C6
:1019B000020086425ADC1020C4F20200864200F087
:1019C00097802820C4F20200864200F091804020D7
:1019D000C4F202008AE000BF45F22F40C5F60200C3
:1019E00086422DDC40F2B740C4F2020086424BDC56
:1019F00040F27040C4F20200864279D040F2884042
:101A0000C4F20200864273D040F2A040C4F2020049
:101A10006CE000BF40F22740C4F20200864243DC83
:101A2000A020C4F20200864262D0B820C4F20200B4
:101A300086425DD040F21040C4F2020056E000BF82
:101A400045F26B40C5F6020086423FDC45F230406D
:101A5000C5F6020086424BD045F24440C5F602006E
:101A6000864245D045F258403EE000BF5820C4F2BF
:101A7000020086423CD07020C4F20200864237D079
:101A80008820C4F2020031E040F2B840C4F2020003
:101A900086422DD045F20840C5F60200864227D086
:101AA00045F21C4020E000BF40F22840C4F2020092
:101AB00086421DD040F24040C4F20200864217D058
:101AC00040F25840C4F2020010E000BF45F26C4002
:101AD000C5F6020086420BD045F29440C5F60200DE
:101AE000864205D045F28040C5F60200864204D108
:101AF000206E016821F480710160306820F00100DF
:101B0000306000BF3068C00710D001F0D5FA401B2C
:101B10000628F7D320206065032084F835000120D3
:101B2000002184F83410BDE8F08100BF206808214E
:101B3000B8424FF03F0211DC6F23C4F20203984217
:101B40001EDC3F23C4F20203984235DC1023C4F2AA
:101B50000203984257D0282350E000BF40451BDCC9
:101B600040F23F43C4F2020398422DDC40F210439E
:101B7000C4F20203984246D040F228433EE000BF40
:101B80009F23C4F20203984228DC7023C4F20203AC
:101B9000984238D0882331E040F29F43C4F20203D8
:101BA000984223DC40F27043C4F2020398422AD0E8
:101BB00040F2884322E000BF4023C4F2020398426F
:101BC00021D058231AE000BF40F24043C4F2020380
:101BD000984218D040F2584310E000BFA023C4F24E
:101BE000020398420FD0B82308E000BF40F2A043A0
:101BF000C4F20203984206D040F2B843C4F2020392
:101C0000984240F0C580D4E9163707F01F074045D9
:101C100002FA07F25A5019DC9F21C4F202018842ED
:101C200032DC5721C4F20201884259DC1021C4F28F
:101C30000201884200F096802821C4F20201884205
:101C400000F090804021C4F2020189E045F22F416A
:101C5000C5F6020188422DDC40F2B741C4F2020110
:101C600088424BDC40F27041C4F20201884279D0D4
:101C700040F28841C4F20201884273D040F2A04190
:101C8000C4F202016CE000BF40F22741C4F202013D
:101C9000884243DCA021C4F20201884262D0B8210C
:101CA000C4F2020188425DD040F21041C4F2020148
:101CB00056E000BF45F26B41C5F6020188423FDCA9
:101CC00045F23041C5F6020188424BD045F244410D
:101CD000C5F60201884245D045F258413EE000BFBA
:101CE0005821C4F2020188423CD07021C4F20201A2
:101CF000884237D08821C4F2020131E040F2B84175
:101D0000C4F2020188422DD045F20841C5F6020115
:101D1000884227D045F21C4120E000BF40F2284114
:101D2000C4F2020188421DD040F24041C4F20201D7
:101D3000884217D040F25841C4F2020110E000BFBF
:101D400045F26C41C5F6020188420BD045F2944140
:101D5000C5F60201884205D045F28041C5F6020170
:101D600088420BD1616EA26EE06E4A6030B10168AC
:101D700021F480710160D4E91C014160012084F8E4
:101D800035000020002184F83410BDE8F08100BF48
:101D90000421012237E70000F0B190F83510022944
:101DA00018D180B540F20F420168C4F2020291429C
:101DB00014DC6F23C4F20203994225DC3F23C4F2F2
:101DC000020399423CDC1023C4F2020399425DD025
:101DD000282357E0802141650120704740F26F437E
:101DE000C4F2020399421BDC40F23F43C4F20203F7
:101DF00099422DDC40F21043C4F20203994245D0CF
:101E000040F228433EE000BF9F23C4F20203994200
:101E100028DC7023C4F20203994237D0882331E0D2
:101E200040F29F43C4F20203994223DC40F2704324
:101E3000C4F20203994229D040F2884322E000BF55
:101E40004023C4F20203994220D058231AE000BF75
:101E500040F24043C4F20203994217D040F2584383
:101E600010E000BFA023C4F2020399420ED0B823B1
:101E700008E000BF40F2B843C4F20203994205D023
:101E800040F2A043C4F20203994275D191424FF04F
:101E9000040280F8352011DC6F20C4F20200814278
:101EA00022DC3F20C4F20200814239DC1020C4F25F
:101EB0000200814259D0282054E000BF40F26F4018
:101EC000C4F2020081421BDC40F23F40C4F2020037
:101ED00081422DDC40F21040C4F20200814244D025
:101EE00040F228403EE000BF9F20C4F20200814241
:101EF00028DC7020C4F20200814236D0882031E014
:101F000040F29F40C4F20200814223DC40F2704064
:101F1000C4F20200814228D040F2884022E000BF93
:101F20004020C4F2020081421FD058201AE000BFB6
:101F300040F24040C4F20200814216D040F25840C4
:101F400010E000BFA020C4F2020081420DD0B820F2
:101F500008E000BF40F2B840C4F20200814204D061
:101F600040F2A040C4F202008142086820F0010063
:101F70000860002080BD00BF0A6822F00E020A60DF
:101F800045F25742C5F6020291420A6822F0010268
:101F90000A600FDC45F22F42C5F60202914219DCBD
:101FA00045F20842C5F60202914229D045F21C4290
:101FB00022E000BF45F27F42C5F60202914213DCE7
:101FC00045F25842C5F60202914219D045F26C42E0
:101FD00012E000BF45F23042C5F6020291420FD036
:101FE00045F2444208E000BF45F29442C5F60202C1
:101FF000914205D045F28042C5F6020291421AD1C3
:10200000D0E9181CD0E916E30A6822F480720A604D
:1020100003F01F01012202FA01F1CEF80410816ED3
:10202000CCF80410C16E31B10A6822F480720A60E3
:10203000D0E91C124A60012180F83510016D0022A0
:10204000002980F8342094D08847002080BD00000B
:102050002DE9F04782B00021019140F2080148F2D9
:10206000B513C2F20041C1F64E33856D40F26F499F
:102070000A680168C4F202092E68A2FB03284945D8
:102080002A6815DC9F22C4F2020291422CDC5722FE
:10209000C4F20202914251DC1022C4F202029142C7
:1020A0007BD02822C4F20202914276D040226FE017
:1020B00045F22F43C5F60203994229DC40F2B743AB
:1020C000C4F20203994245DC40F27042C4F20202BB
:1020D000914262D040F28842C4F2020291425CD046
:1020E00040F2A04254E000BF40F22742C4F2020294
:1020F00091423FDCA022C4F2020291424DD0B822AC
:10210000C4F20202914248D040F2104240E000BFC7
:1021100045F26B43C5F60203994275DC45F2304344
:10212000C5F60203994200F0828045F24443C5F6A9
:10213000020399427BD045F2584373E05822C4F21F
:102140000202914229D07022C4F20202914224D0AC
:1021500088221DE040F2B843C4F2020399421CD029
:1021600045F20843C5F60203994260D045F21C438C
:1021700058E000BF40F22842C4F2020291420CD063
:1021800040F24042C4F20202914206D040F258426C
:10219000C4F20202914240F05383C26D082302F060
:1021A0001F0240F20F4A9340C4F2020A334200F089
:1021B000DE8051454FF0040412DC6F27C4F20207A1
:1021C000B9426DDC3F27C4F20207B94200F39C809C
:1021D0001027C4F20207B94200F0BD802827B5E0FD
:1021E000494569DC40F23F47C4F20207B94200F3B7
:1021F000938040F21047C4F20207B94200F0AB806E
:1022000040F22847A2E000BF45F26C43C5F6020346
:1022100099420CD045F28043C5F60203994206D09C
:1022200045F29443C5F60203994240F009830B68D6
:10223000C76D07F01F070426BE40164218BF13F0F3
:10224000040423D10226BE40164218BF13F0020434
:1022500042D1FA40120740F1F38213F0080200F075
:10226000EF820A6822F00E020A60012101FA07F2E9
:102270006A60416580F83510C16C00294FF000029A
:1022800080F8342040F0D882DAE200BF1A046E6091
:1022900034D49A0636D40A6822F004020A6031E087
:1022A0009F27C4F20207B94240DC7027C4F202073C
:1022B000B94250D0882749E040F29F47C4F2020754
:1022C000B9423BDC40F27047C4F20207B94242D047
:1022D00040F288473AE000BF1A046E6000F1B48211
:1022E0009A0600F1B5820A6822F00A020A6001210A
:1022F00080F83510002180F83410A9E2D90301D408
:10230000816C98E2016C96E24027C4F20207B94260
:1023100021D058271AE000BF40F24047C4F202071C
:10232000B94218D040F2584710E000BFA027C4F2CD
:102330000207B9420FD0B82708E000BF40F2A0471B
:10234000C4F20207B94206D040F2B847C4F202070D
:10235000B94218BF08240F68274208D00F6827F039
:1023600004070F60AB60436D43F001034365012335
:10237000934033426FD0514510DC6F27C4F20207FF
:10238000B9421DDC3F27C4F20207B94234DC1027F2
:10239000C4F20207B94256D028274FE049451BDC5A
:1023A00040F23F47C4F20207B9422DDC40F2104729
:1023B000C4F20207B94246D040F228473EE000BFCF
:1023C0009F27C4F20207B94228DC7027C4F2020733
:1023D000B94238D0882731E040F29F47C4F2020763
:1023E000B94223DC40F27047C4F20207B9422AD056
:1023F00040F2884722E000BF4027C4F20207B942FA
:1024000021D058271AE000BF40F24047C4F202072B
:10241000B94218D040F2584710E000BFA027C4F2DC
:102420000207B9420FD0B82708E000BF40F2A0472A
:10243000C4F20207B94206D040F2B847C4F202071C
:10244000B94240F007824F693F0604D5AB60436D47
:1024500043F0020343650423934033426FD0514558
:1024600010DC6F27C4F20207B9421DDC3F27C4F21B
:102470000207B94234DC1027C4F20207B94256D031
:1024800028274FE049451BDC40F23F47C4F20207D2
:10249000B9422DDC40F21047C4F20207B94246D0DF
:1024A00040F228473EE000BF9F27C4F20207B9422E
:1024B00028DC7027C4F20207B94238D0882731E0FF
:1024C00040F29F47C4F20207B94223DC40F2704752
:1024D000C4F20207B9422AD040F2884722E000BF86
:1024E0004027C4F20207B94221D058271AE000BFA2
:1024F00040F24047C4F20207B94218D040F25847B0
:1025000010E000BFA027C4F20207B9420FD0B827DD
:1025100008E000BF40F2A047C4F20207B94206D06B
:1025200040F2B847C4F20207B94240F09B810F68FD
:10253000BF0704D5AB60436D43F00403436510232C
:1025400003FA02F2324200F0828051454FF0080354
:1025500010DC6F27C4F20207B9421DDC3F27C4F22A
:102560000207B94234DC1027C4F20207B94256D040
:1025700028274FE049451BDC40F23F47C4F20207E1
:10258000B9422DDC40F21047C4F20207B94246D0EE
:1025900040F228473EE000BF9F27C4F20207B9423D
:1025A00028DC7027C4F20207B94238D0882731E00E
:1025B00040F29F47C4F20207B94223DC40F2704761
:1025C000C4F20207B9422AD040F2884722E000BF95
:1025D0004027C4F20207B94221D058271AE000BFB1
:1025E00040F24047C4F20207B94218D040F25847BF
:1025F00010E000BFA027C4F20207B9420FD0B827ED
:1026000008E000BF40F2A047C4F20207B94206D07A
:1026100040F2B847C4F20207B94218BF04230F685A
:102620001F4214D0AA600A6852030A6808D4D2056F
:1026300008D40A6822F008020A60016C21B906E099
:10264000110351D4016C11B1044688472046C16D75
:1026500001F01F02202101FA02F3334200F0AF80A3
:1026600001681027514511DC6F26C4F20206B14201
:102670001EDC3F26C4F20206B14239DC1026C4F249
:102680000206B1425BD0282654E000BF49451BDC5E
:1026900040F23F46C4F20206B14231DC40F210463D
:1026A000C4F20206B1424AD040F2284642E000BFDE
:1026B0009F26C4F20206B1422CDC7026C4F2020648
:1026C000B1423CD0882635E040F29F46C4F2020673
:1026D000B14227DC40F27046C4F20206B1422ED06D
:1026E00040F2884626E000BF816C0029ACD1AEE7FD
:1026F0004026C4F20206B14221D058261AE000BF9B
:1027000040F24046C4F20206B14218D040F25846A8
:1027100010E000BFA026C4F20206B1420FD0B826D6
:1027200008E000BF40F2A046C4F20206B14206D063
:1027300040F2B846C4F20206B14218BF02270E6842
:102740003E423CD0AB6090F83530042B0B681DD175
:1027500023F016030B604B6923F080034B61036C7D
:102760000BB9836C1BB10B6823F008030B603F218E
:102770009140A960012180F83510016D00294FF0CA
:10278000000280F8342057D15AE000BF5A030A688B
:102790000CD4D2050ED40A6822F010020A6001217E
:1027A00080F83510002180F8341003E0110301D4C3
:1027B000416C00E0C16B11B1044688472046416D71
:1027C00000293DD0416DC90734D0042180F835106F
:1027D00001684FEA98220B6823F001030B60019B0C
:1027E0000133019393421AD80B68DB0717D0019B82
:1027F00001330193934212D80B68DB070FD0019B82
:102800000133019393420AD80B68DB0707D0019B81
:1028100001330193934202D80B68DB07DFD10968CB
:10282000C9074FF0030108BF012180F835100021CE
:1028300080F83410C16C19B102B0BDE8F047084708
:1028400002B0BDE8F08700BFD90301D4416CF2E7C4
:10285000C16BF0E70B680423934033427FF4FFAD74
:102860006DE600BF0B686AE62DE9F041044600F012
:1028700023FCFCB140F26F4805462068C4F2020810
:1028800040451BDC9F21C4F20201884232DC572103
:10289000C4F20201884259DC1021C4F202018842CC
:1028A00000F083802821C4F20201884200F07D807C
:1028B000402175E00120BDE8F08100BF45F22F41C5
:1028C000C5F60201884229DC40F2B741C4F2020198
:1028D000884247DC40F27041C4F20201884264D071
:1028E00040F28841C4F2020188425ED040F2A04129
:1028F00056E000BF40F22741C4F20201884241DCA9
:10290000A021C4F2020188424FD0B821C4F20201D2
:1029100088424AD040F2104142E000BF45F26B418C
:10292000C5F60201884200F3B38045F23041C5F696
:102930000201884200F0BF8045F24441C5F6020121
:10294000884200F0B88045F25841AFE05821C4F207
:102950000201884229D07021C4F20201884224D0A9
:1029600088211DE040F2B841C4F2020188421CD027
:1029700045F20841C5F60201884200F09C8045F20C
:102980001C4193E040F22841C4F2020188420CD07D
:1029900040F24041C4F20201884206D040F2584160
:1029A000C4F20201884240F01B81022184F83510F4
:1029B000002184F83410016821F00101016000BF9A
:1029C00020680168C9070DD000F076FB401B06287F
:1029D000F6D320206065032084F835000120BDE88F
:1029E000F08100BF48F23F0204F108060168CFF60B
:1029F0001062114065694CCE1143A2691943E36925
:102A00003143266A0D43616A2B43042943EA0603D6
:102A100043EA020303D1D4E90B652E43334341F269
:102A20000006C5F600463668B6F1005F0FD365684C
:102A3000A5F129061F2E00F235820127B7403F2657
:102A4000CCF2C036374200F02D8243F4801303608D
:102A50000429436923F0070341EA030140F0DC80C5
:102A6000D4E90A53002B41EA050100F0D580B2F504
:102A7000005F00F0B780002A40F0C080022D00F017
:102A8000C080012D00F0B480002D00F0BA80C3E0BA
:102A900045F26C41C5F6020188420CD045F28041F6
:102AA000C5F60201884206D045F29441C5F60201FE
:102AB000884240F0958004F1080E022184F8351018
:102AC000002184F834100168A3699EE80450A2F143
:102AD0008005E769B5FA85F566696D09402A4FEA10
:102AE000853543EA07026FF3101142EA060208BF78
:102AF000102541EADC0142EA0E02236A294341EA39
:102B0000D20141EA131140F80819C0B2CD2148435F
:102B10003C2101EA9020E0652046FEF7C5F8E16D12
:102B2000012201F01F0102FA01F1416020684045D5
:102B300000F381809F21C4F20201884214DC5721F6
:102B4000C4F20201884227DC1021C4F2020188424B
:102B500000F0C7802821C4F20201884200F0C18041
:102B60004021C4F20201B9E040F22741C4F202015F
:102B7000884221DCA021C4F20201884200F0B18029
:102B8000B821C4F20201884200F0AB8040F210414B
:102B9000C4F20201A2E000BF5821C4F2020188423F
:102BA00000F09F807021C4F20201884200F09980F9
:102BB0008821C4F2020191E040F22841C4F20201EE
:102BC000884200F08E8040F24041C4F20201884207
:102BD00000F0878040F25841C4F202017EE000BF5D
:102BE0004020F7E6032D17D8DFE805F00E0B0E02A4
:102BF000A3F1C072B2FA82F2520904E0032D03D3AA
:102C00000AD1C3F300623AB140206065012084F824
:102C10003500BDE8F08100BF41612046FEF744F871
:102C2000E16D3F2201F01F0102FA01F1816020688D
:102C300040457FF77FAF45F22F41C5F6020188423C
:102C400016DC40F2B741C4F20201884226DC40F2B1
:102C50007041C4F20201884243D040F28841C4F27C
:102C6000020188423DD040F2A041C4F2020135E0A9
:102C700045F26B41C5F6020188421FDC45F2304146
:102C8000C5F6020188422CD045F24441C5F6020146
:102C9000884226D045F258411EE000BF40F2B841BC
:102CA000C4F2020188421CD045F20841C5F6020177
:102CB000884216D045F21C410EE000BF45F26C413F
:102CC000C5F6020188420CD045F29441C5F60201D6
:102CD000884206D045F28041C5F60201884240F0A4
:102CE000D98045F2574C45F6FC0EC5F6020CC5F6E8
:102CF000020E60450EDC45F22F41C5F60201884206
:102D000018DC45F20841C5F60201884228D045F298
:102D10001C4121E045F27F41C5F60201884213DCE7
:102D200045F25841C5F60201884219D045F26C417E
:102D300012E000BF45F23041C5F6020188420FD0D3
:102D400045F2444108E000BF45F29441C5F6020156
:102D5000884205D045F28041C5F60201884247D13C
:102D600000F0FC014CF6CD420839CCF6CC42A1FB78
:102D70000212AEF1FC05AEF17C061309A26803F065
:102D80001F01802A4FF0010205EB8305256602FA38
:102D900001F26666A26605D100206060286072605C
:102DA0001EE000BF6368D9B25F1E072F2960726002
:102DB00016D84E1E082E19D260450EF1440237DC9B
:102DC00045F22F41C5F60201884241DC45F2084137
:102DD000C5F60201884251D045F21C414AE000BFCD
:102DE00000206067C4E91B0054E000BFE06E4CE0C7
:102DF00000F0F8014AF6AB221039CAF6AA22A1FB6C
:102E0000021240F20F43C4F202030825110998424E
:102E100003F1AA060B4688BF05EB121340F6000526
:102E2000B042C4F2020505F1800628BF0B46A5E7B3
:102E300045F27F41C5F60201884213DC45F2584154
:102E4000C5F60201884219D045F26C4112E000BF7C
:102E500045F23041C5F6020188420FD045F24441A7
:102E600008E000BF45F28041C5F60201884205D066
:102E700045F29441C5F6020188421BD10EEB830056
:102E80000121E066B1402267616700210160D4E959
:102E90001C01416000206065012184F83510BDE807
:102EA000F08100BFA5F14F07042F38BF43F4801312
:102EB000CDE500BF40F60000C4F2020000F1FC0EB8
:102EC00000F5A072DAE70000B0B5044600F0F4F8AF
:102ED00040F210010546C2F20041621C097818BF99
:102EE0000C4400BF00F0E8F8401BA042FAD3B0BD8C
:102EF0002DE9F04F83B00F68002F00F0C98000F17A
:102F0000264642F2004506F1FF76C5F602050A2282
:102F1000A8424FEAB62540F2040C08BF092200F18E
:102F200020030093092DC5F6000C38BF4FEAB622E6
:102F3000002400264FF0000801920AE008F1010881
:102F40000F6837FA08F206F1020604F1040400F0F3
:102F50009F80012202FA08FE17EA0E09EED0D1F88E
:102F600004B003220BF00307B2407D1E6FEA020A91
:102F7000012D11D88268CD6802EA0A02B5402A43C1
:102F80008260CBF30015426822EA0E0205FA08F5CA
:102F90002A43426004E000BF032F01D103271FE052
:102FA000C2688D6802EA0A02B540022F42EA0502B1
:102FB000C26015D16FF0030204F01C0502EA580B41
:102FC000009A0F2352F80BE0AB400F692EEA03037F
:102FD000AF403B4342F80B30D1F804B00BF003078D
:102FE000026807FA06F302EA0A021BF4403F42EACB
:102FF00003020260A2D044F2F44340F2084EC5F648
:103000000203C5F6000E0F251A6842F002021A608C
:103010001A6802F00202029228F00302029B04F0F6
:103020000C0352F80E709D40AF43019D05FA03F367
:103030003B4342F80E304FF0B04EDEF800204B68B4
:1030400042EA0907DD0258BF22EA09079D02CEF8CD
:103050000070DCF8002042EA090758BF22EA09079D
:103060009D03CCF80070DCF8802042EA090758BFC5
:1030700022EA0907DB03CCF88070DCF87C2042EA06
:10308000090758BF22EA0907CCF87C7056E700BF51
:1030900003B0BDE8F08F0000002A08BF0904816179
:1030A000704700000000000041F20000C5F600403B
:1030B0000068000C7047000040F21C70C2F2004033
:1030C000006870470000000040F2100040F21C71E0
:1030D000C2F20040C2F2004100780A681044086061
:1030E000704700000000000080B5032000F0B0F839
:1030F00001F05EF944F2184149F20003C5F60201FD
:10310000C0F600030A68C2F303229A5C096801F062
:103110000F0102F01F02595CD04040F20C02C2F2D3
:10312000004201F01F0120FA01F1116040F2080194
:10313000C2F200410860002000F00AF800281CBF1D
:10314000012080BD00F02CF8002080BD00000000B0
:10315000B0B540F21005C2F200452978F1B104463D
:1031600040F20800C2F200404FF47A72B2FBF1F173
:103170000068B0FBF1F001F063FC0F2C01464FF04A
:1031800001000AD8002918BFB0BD4FF0FF3000225F
:10319000214600F02DF800206C60B0BD0120B0BDCC
:1031A00081B044F2F440C5F60200016841F002012A
:1031B0000160006800F0020000900520009901B055
:1031C00000F046B800000000002848BF704700F03B
:1031D0001F01012202FA01F14EF20012C0F34A105F
:1031E000CEF2000242F820107047000000000000FC
:1031F00070B54EF60C5C4FF0FF36CEF2000C00F1CD
:10320000604505F56445DCF80030C3F3022E8EF00E
:103210000703042B28BF0423BEF1030406FA03F3BB
:1032200021EA030100F00F0338BF0024043B00280B
:10323000634406FA04F048BF03F10C05A14022EAFA
:10324000000008430001287070BD0000000000006D
:103250004EF60C514FF6FF03CEF200010A681A40F9
:1032600060F30A2242F0806040F0FD700860704711
:10327000B0B544F60C05C5F602052968490729686A
:1032800006D401F00701081A18BF0120B0BD00BF25
:1032900021F0070108432860FFF70EFF044600BF36
:1032A00055F8080C800407D4FFF706FF001BB0F5A3
:1032B0007A7FF5D90120B0BD0020B0BD000000002C
:1032C00080B500F0EDFF44F2204149F20002C5F65E
:1032D0000201C0F600020968C1F30211515C01F05D
:1032E0001F01C84080BD000080B544F2384EC5F6CD
:1032F000020E5EF8103C5EF8101C5EF80C2CC1F358
:10330000053CDEF80410BCF1000F19D0C9089FED90
:103310003C1AD20601EAE27103F003026FF35F3157
:1033200000EE101AB8EE400ADFE802F00222102286
:103330005EF8381C89060DD49FED331A18E000BFE3
:1033400000218160C0E9001180BD00BF9FED2D1AF2
:103350000EE000BF5EF8381C49F20002C0F2D03225
:10336000C1F3C10122FA01F101EE101AB8EE411ABF
:10337000DEF800109FED253A6FF35F2102EE101A80
:10338000DEF80010C1F34621B8EE422A013100EE0A
:10339000032A00EE10CAB7EE003AB8EE400A81EEFA
:1033A000000A32EE031A20EE010A01EE101AB8EEFE
:1033B000411A80EE011ABCEEC11A80ED001ADEF847
:1033C0000010C1F30641013101EE101AB8EE411AA6
:1033D00080EE011ABCEEC11A80ED011ADEF8001071
:1033E000C1F30661013101EE101AB8EE411A80EE08
:1033F000010ABCEEC00A10EE101A816080BD00BF49
:103400000024744A20BCBE4B0024744C00000039D8
:1034100080B544F2404EC5F6020E5EF8183C5EF8E8
:10342000181C5EF8142CC1F3055CDEF80410BCF126
:10343000000F19D0C9089FED3C1AD20501EAE271CC
:1034400003F003026FF35F3100EE101AB8EE400A8A
:10345000DFE802F0022210225EF8401C89060DD43B
:103460009FED331A18E000BF00218160C0E9001110
:1034700080BD00BF9FED2D1A0EE000BF5EF8401C1E
:1034800049F20002C0F2D032C1F3C10122FA01F1C7
:1034900001EE101AB8EE411ADEF800109FED253A41
:1034A0006FF35F2102EE101ADEF80010C1F346211F
:1034B000B8EE422A013100EE032A00EE10CAB7EE40
:1034C000003AB8EE400A81EE000A32EE031A20EE0E
:1034D000010A01EE101AB8EE411A80EE011ABCEE94
:1034E000C11A80ED001ADEF80010C1F30641013167
:1034F00001EE101AB8EE411A80EE011ABCEEC11AA4
:1035000080ED011ADEF80010C1F30661013101EE11
:10351000101AB8EE411A80EE010ABCEEC00A10EE95
:10352000101A816080BD00BF0024744A20BCBE4BCD
:103530000024744C000000392DE9F0470446C0789F
:1035400044F22C480007C5F6020828D5A06E4FEAC1
:10355000305103292AD8DFE801F0030B131B00BF09
:10356000D8F8001041F40031C8F8001010E000BF96
:1035700004F10800022103F017F8064680B906E0BE
:1035800004F12800022103F0A3F8064640B9A06E1A
:10359000D8F8241021F440110843C8F8240000266C
:1035A0006078C00706D135462FE000BF012660785D
:1035B000C007F8D0A06D042858D83546DFE800F0E1
:1035C00004140E0B0B0000BFD8F80000354640F481
:1035D0000030C8F800002F46C5B90DE004F12800FE
:1035E000002103F075F804E004F10800002102F066
:1035F000DBFF05462F464DB9D8F82400A16D20F019
:10360000070000250843C8F8240037466078800783
:1036100031D5E06D4FEAB01004285FD8DFE800F044
:1036200004140E0A0A0000BFD8F8000040F400306D
:10363000C8F800002E46FDB90EE000BF04F12800D6
:10364000002103F045F804E004F10800002102F035
:10365000ABFF05462E467DB9D8F82400E16D20F475
:10366000E07000250843C8F8240004E00125012784
:1036700060788007CDD43E466078400733D5D4F8D3
:10368000A8004FEA7050042860D8DFE800F0031368
:103690000D090900D8F8000040F40030C8F8000017
:1036A000A9460DBB0EE000BF04F12800002103F085
:1036B0000FF804E004F10800002102F075FF054650
:1036C000A9468DB9D8F82C00D4F8A81020F46000D1
:1036D00000250843C8F82C0005E000BF012501269D
:1036E00060784007CBD4B1466078000734D5D4F871
:1036F000AC004FEA306004285ED8DFE800F0031326
:103700000D090900D8F8000040F40030C8F80000A6
:103710002F4615BB0EE000BF04F12800002102F087
:10372000D7FF04E004F10800002102F03DFF054648
:103730002F4695B9D8F82C00D4F8AC1020F0E060F2
:1037400000250843C8F82C0006E000BF01254FF013
:10375000010960780007CAD44F46E078800730D569
:10376000E06C4FEA3010032820D8DFE800F00903AE
:10377000150900BFD8F8000040F40030C8F8000078
:103780002E46ADB9D8F82000E16C20F030000025BD
:103790000843C8F8200014E004F10800022102F0F8
:1037A00003FF05462E461DB9ECE700BF01250126A3
:1037B0006078C00609D434E001250127E07880074D
:1037C000CED43E466078C0062BD5206E4FEA30300E
:1037D000042839D8DFE800F004140E0A0A0000BFFC
:1037E000D8F8000040F40030C8F800002F46CDB9EA
:1037F0000EE000BF04F12800002102F069FF04E0A0
:1038000004F10800002102F0CFFE05462F464DB915
:10381000D8F82400216E20F4E04000250843C8F8C1
:10382000240037466078800635D5606E4FEA304018
:10383000052815D8DFE800F0041A0E04040400BFC0
:103840002E46DDB91EE000BF012501276078800605
:10385000EBD420E004F12800012102F039FF0AE056
:10386000012501266078400619D449E004F10800DA
:10387000012102F099FE05462E461DB160784006F2
:103880000DD43DE0D8F82400616E20F4E02000253E
:103890000843C8F824003E466078400630D5D4F886
:1038A000B0004FEA307005280ED8DFE800F00313AF
:1038B000070303032F46ADB918E000BF04F1280049
:1038C000012102F005FF0AE00125012760780006CA
:1038D0001AD43CE004F10800012102F065FE05461F
:1038E0002F461DB1607800060ED430E0D8F82C00C9
:1038F000D4F8B01020F0E04000250843C8F82C00B0
:1039000037466078000622D5206F58B1B0F1005FCD
:103910000CD0B0F1805F37D1D8F8000040F400300F
:10392000C8F800002E469DB908E000BF04F1080069
:10393000012102F039FE05462E464DB9D8F8240083
:10394000216F20F0405000250843C8F824003E466F
:10395000E078C0071DD0A06C032855D8DFE800F040
:1039600008024A08D8F8000040F40030C8F8000007
:10397000A9467DB9D8F82000A16C20F003000025ED
:103980000843C8F8200004E001250126E078C007BC
:10399000E1D1B146A078400602D44F4618E000BFFE
:1039A000D8F8D40340F48070C8F8D403FFF784FB40
:1039B000064600BFD8F8D403C00507D4FFF77CFB48
:1039C000801B6428F6D90325032701E02F46FDB1AB
:1039D0002078C00700F06F80E06F4FEAF000052804
:1039E0004ED8DFE800F0035347030303002D2E46B3
:1039F00054D157E004F10800022102F0D5FD05463C
:103A0000002DA946C6D1B5E701254FF00109C1E750
:103A1000D8F84410D4F8B400414011F4407F11D0DC
:103A2000D8F84410D8F8442042F48032C8F8442032
:103A3000D8F8442021F4407122F48032C8F84420A0
:103A4000C8F84410B0F5807F40F0E082FFF734FB07
:103A5000064641F2883A0325032700BFD8F8440000
:103A6000800700F1D182FFF727FB801B5045F5D975
:103A7000AEE700BF04F12800012102F029FE0AE0B0
:103A8000012501262078800719D446E004F10800BA
:103A9000012102F089FD05462E461DB120788007E0
:103AA0000DD43AE0D8F82800E16F20F03800002566
:103AB0000843C8F828003E46207880072DD5A06F1F
:103AC00005280FD8DFE800F004140804040400BF40
:103AD0002F46ADB918E000BF04F12800012102F023
:103AE000F7FD0AE0012501272078400719D447E0B7
:103AF00004F10800012102F057FD05462F461DB1D3
:103B0000207840070DD43BE0D8F82800A16F20F0C2
:103B1000070000250843C8F82800374620784007EA
:103B20002ED5D4F8940005280ED8DFE800F0031352
:103B3000070303032E46ADB918E000BF04F12800C7
:103B4000012102F0C5FD0AE001250126207880064A
:103B50001AD44BE004F10800012102F025FD0546CE
:103B60002E461DB1207880060ED43FE0D8F82C00F8
:103B7000D4F8941020F0070000250843C8F82C0062
:103B80003E462078800631D5D4F890004FEA307058
:103B900005280FD8DFE800F004140804040400BF6F
:103BA0002F46ADB918E000BF04F12800022102F051
:103BB0008FFD0AE001250127207840061AD44BE04A
:103BC00004F10800002102F0EFFC05462F461DB16C
:103BD000207840060ED43FE0D8F82800D4F89010A2
:103BE00020F0E04000250843C8F828003746207838
:103BF000400631D5D4F89C004FEAB02005280FD8F4
:103C0000DFE800F004140804040400BF2E46ADB938
:103C100018E000BF04F12800022102F059FD0AE07B
:103C200001250126207800061AD44EE004F1080090
:103C3000002102F0B9FC05462E461DB12078000691
:103C40000ED442E0D8F82C00D4F89C1020F4E050B8
:103C500000250843C8F82C003E462078000634D5DD
:103C6000D4F8A0004FEA7030052815D8DFE800F03E
:103C7000041A0E04040400BF2F46E5B120680107B2
:103C800027D4C1063ED4000355D477E004F12800C0
:103C9000022102F01DFD0AE001250127206801072D
:103CA000EFD516E004F10800002102F07DFC054686
:103CB000002D2F46E2D1D8F82C00D4F8A01020F423
:103CC000604000250843C8F82C00374620680107EB
:103CD000D7D5D4F88400B0F5805F09D104F128006D
:103CE000022102F0F5FC002818BF0127D4F8840057
:103CF000D8F8281021F440510843C8F8280020685B
:103D0000C106C0D5D4F89800B0F5807F09D104F180
:103D10002800022102F0DCFC002818BF0127D4F89B
:103D20009800D8F82C1021F440710843C8F82C00F2
:103D30002068000322D5D4F8A400B0F5003F11D0CC
:103D4000B0F5803F08D0002844D104F108000021DC
:103D500002F02AFC05E000BF04F12800022102F075
:103D6000B7FC05462E4655B9D8F82C00D4F8A41057
:103D700020F4403000250843C8F82C003E46A078C7
:103D800040072CD5D4F88800B0F5401F0BD0B0F513
:103D9000001F0BD0B0F5801F2AD1D8F8000040F4E6
:103DA0000030C8F800002F46D5B907E004F128001C
:103DB000012102F08DFC05462F468DB9D8F8280068
:103DC000D4F8881020F4401000250843C8F82800D3
:103DD00005E000BF01250126A0784007D2D4374670
:103DE000A078C00709D13E462168880015D532E089
:103DF00001250127A078C007F5D0206DB0F5803FE0
:103E000010D018BBD8F8000040F40030C8F800000B
:103E10002E4685B1216888001DD460688A0326D4A7
:103E200069E000BF04F10800022102F0BDFB054675
:103E3000002D2E46EED1D8F82000216D20F48030E0
:103E400000250843C8F82000CDE700BF0125012662
:103E500021688800E1D504F12800022102F038FC35
:103E6000002818BF0126D4E900108A0343D5D4F8EE
:103E700080206FF0010303EB3223022B0BD34FEAB8
:103E8000322343B1012B40F0B980D8F8003043F41D
:103E90000033C8F800303DB3CA022FD4CA0037D46B
:103EA0008A0240D44A0048D4CA0F55D109025DD4D1
:103EB000C10766D181076FD4410779D4010700F1AA
:103EC0008380C10600F18C80800607D504F12800AC
:103ED000022102F0FDFB002818BF0125002D18BFAC
:103EE00001252846BDE8F087D8F8283023F4407330
:103EF0001A43C8F828203546CA02CFD5D8F824205E
:103F0000636F22F000421A43C8F82420CA00C7D5C4
:103F100058F81C2CD4F8B83022F480421A4348F8E0
:103F20001C2C8A02BED5D8F82420E36E22F08072C1
:103F30001A43C8F824204A00B6D558F81C2C22F49D
:103F4000004248F81C2CD4F8BC2058F81C3C1A43FA
:103F500048F81C2CCA0FA9D0D8F82020636D22F095
:103F600040521A43C8F820200902A1D5D8F82810D9
:103F7000D4F88C2021F440011143C8F82810C1075F
:103F800098D004F10800002102F00EFB002818BFB1
:103F90000546606881078FD504F10800012102F011
:103FA00003FB002818BF0546606841077FF586AF10
:103FB00004F10800022102F0F7FA002818BF0546B4
:103FC000606801077FF57DAF04F12800002102F051
:103FD0007FFB002818BF05466068C1067FF574AFF7
:103FE00004F12800012102F073FB002818BF0546E8
:103FF000606880063FF56AAF70E700BF0125CA021E
:104000007FF54CAF7AE700BFD4F8B4004FF6CF731A
:1040100058F81C2CC0F2FF0300F4407122F47C52CB
:1040200003EA10136FF31F30B1F5407F08BF1A4346
:10403000002548F81C2CD8F844100843C8F8440060
:10404000FFF7ABBC000000002DE9F04381B0002871
:1040500000F0208142F200090446C5F20029D9F897
:10406000000000F00F0081420DD9D9F8000020F0C7
:104070000F000843C9F80000D9F8000000F00F0055
:10408000884240F00781206844F218464207C5F68E
:1040900002060AD52269336803F070039A4204D9F4
:1040A000336823F070031A43326002070AD562694D
:1040B000736803F070039A4204D9736823F07003A5
:1040C0001A437260C2060AD5A269736803F4E063FA
:1040D0009A4204D9736823F4E0631A43726082063B
:1040E0000AD5E269B36803F070039A4204D9B36851
:1040F00023F070031A43B26010F002020AD0E368A2
:10410000376807F00F07BB4204D9376827F00F075D
:104110003B433360C3073FD0306820F47062D4E97A
:1041200001031A433260012856F8182C0AD00328DC
:1041300004D002280AD192030BD4ABE0920108D438
:10414000A8E000BFD20504D4A4E000BF520740F1AC
:10415000A180884656F8081C21F00701084346F85C
:10416000080CFEF7A9FF054641F2883756F8080CFF
:10417000616800F03800B0EBC10F09D0FEF79CFF7A
:10418000401BB842F2D9032001B0BDE8F08300BF64
:104190002068414600F0020252B1E268336803F041
:1041A0000F039A4204D2336823F00F031A4332609C
:1041B000D9F8002002F00F0291420CD2D9F8002069
:1041C00022F00F020A43C9F80020D9F8002002F0BB
:1041D0000F028A425ED141070AD52169326802F096
:1041E0007002914204D2326822F0700211433160B1
:1041F00001070AD56169726802F07002914204D227
:10420000726822F0700211437160C1060AD5A1697B
:10421000726802F4E062914204D2726822F4E062B1
:104220001143716080060AD5E069B16801F0700140
:10423000884204D2B16821F070010843B06000F0F8
:10424000B7F8316849F20002C0F60002C1F3032159
:10425000515C336803F00F0301F01F01D25C20FAB8
:1042600001F102F01F0040F20C02C2F2004221FAFA
:1042700000F0106040F2140040F20802C2F2004068
:10428000C2F200420068116001B0BDE8F043FEF7E1
:104290005FBF00BF012001B0BDE8F0830000000057
:1042A00080B500F085F844F2184149F20003C5F6E4
:1042B0000201C0F600030A68C2F303229A5C09688F
:1042C00001F00F0102F01F02595C20FA02F201F026
:1042D0001F0040F20C01C2F2004122FA00F0086017
:1042E00040F20801C2F200410A6080BD00000000F7
:1042F00080B500F05DF844F2184C49F20003C5F6B1
:10430000020CC0F60003DCF80020C2F303229A5C22
:10431000DCF8001001F00F0102F01F02595CD040E0
:1043200040F20C02C2F2004201F01F0120FA01F13A
:10433000116040F20802C2F200421060DCF8040092
:10434000C0F30210185C00F01F0021FA00F080BDDD
:1043500080B500F02DF844F2184C49F20003C5F680
:10436000020CC0F60003DCF80020C2F303229A5CC2
:10437000DCF8001001F00F0102F01F02595CD04080
:1043800040F20C02C2F2004201F01F0120FA01F1DA
:10439000116040F20802C2F200421060DCF8040032
:1043A000C0F30220185C00F01F0021FA00F080BD6D
:1043B00044F20041C5F602010869C0F3C2000328B7
:1043C00016D002280ED0002832D10868800649F2A3
:1043D0000000C0F2D03058BF70470968C1F3C10176
:1043E000C840704747F64000C0F27D10704700BFDC
:1043F0008B6A886AD1F82CC04A6BC0F30510E8B10B
:10440000C2F3CC0203F0030300EE102A9FED2A1A38
:10441000B8EE400A20EE010A9FED281ADFE803F00B
:10442000022110210A6892060ED49FED261A18E088
:1044300040F60010C0F23D00704700BF00207047FA
:104440009FED1F1A0DE000BF0A6849F20003C0F299
:10445000D033C2F3C10223FA02F201EE102AB8EE01
:10446000411A0A6B9FED183A6FF35F2202EE102A91
:104470005FEACC7203FE000A03EE100A086BB8EE86
:10448000422AC0F34620B8EE433A013030EE020A29
:10449000B7EE002A81EE031A30EE020A21EE000A7E
:1044A00001EE100AB8EE411A80EE010ABCEEC00A15
:1044B00010EE100A704700BF000000390024744A53
:1044C00020BCBE4B0024744C000000000000000023
:1044D00070B3F0B581B00446007844F20046C007DE
:1044E000C5F6020626D12078800740F1C2803069E7
:1044F00010F03801B06A3FD0182908BF5FEA807019
:104500003AD0E0683168002862D021F019010843F0
:104510003060FEF7D1FD05463068400748D4FEF70D
:10452000CBFD401B0228F7D9032001B0F0BD00BF2E
:1045300001207047306900F03801B06A102905D0B9
:1045400018290BD100F00300022807D1306880033E
:10455000C9D560680028C6D13CE100BF61683068F9
:1045600000294FD0B1F5A02F44D0B1F5803F5FD1E5
:1045700040F4803062E000BF30684007E06802D558
:10458000002800F02781316821F0190108433060CC
:10459000FEF792FD054600BF3068400708D4FEF7DD
:1045A0008BFD401B02284FF00300F5D901B0F0BD90
:1045B000FEF77AFD41F2030188424FD82069716805
:1045C000402821F47C3151D141F4003050E000BF4B
:1045D00021F001003060FEF76FFD054630684007AE
:1045E00047D5FEF769FD401B02284FF00300F5D9BF
:1045F000DCE700BF40F480203060306840F4803059
:104600001CE000BF20F480303060306820F480204F
:104610003060FEF751FD0546306880037FF563AFDB
:10462000FEF74AFD401B64284FF00300F4D9BDE7B4
:1046300020F480303060306820F480203060FEF755
:104640003BFD0546306880033FF54DAFFEF734FD76
:10465000401B6428F6D9032001B0F0BD70682169C1
:1046600020F0FE4040EA016002E000BF41EA003075
:1046700070602078C00654D5306900F03801B06A07
:10468000082905D0182919D100F00300012815D1F7
:104690003068C00503D5E069802840F09B80FEF7B4
:1046A00003FD41F2030188421ED8206A7168202868
:1046B00021F0F84132D141F0804031E0E06900283A
:1046C000306819D040F080003060FEF7F5FC0546F8
:1046D0003068C005E3D4FEF7EFFC401B02284FF022
:1046E0000300F5D962E700BFF068216A20F07C5032
:1046F00040EA0160F06014E020F080003060FEF7D6
:10470000DBFC05463068C0050BD5FEF7D5FC401B29
:1047100002284FF00300F5D948E700BF41EA806066
:104720007060207800073FD42078800656D4207827
:10473000400769D4656A9DB3306900F038001828D5
:1047400040F0A880012DB16A306B43D001F0030224
:10475000A36A9A423ED1C1F30511E26A914239D16E
:104760000146226B6FF35F21013A914232D1C0F3CF
:104770004622616B01398A422CD1C0F30642A16BFB
:1047800001398A4226D1C0F30660E16B01398842C3
:1047900020D1706BA16CC0F3CC00814240F0348119
:1047A000002001B0F0BD00BF60690028706F41D0EB
:1047B00040F001007067FEF77FFC0546706F8007D0
:1047C000B2D4FEF779FC401B0228F7D9032001B0D0
:1047D000F0BD00BF012001B0F0BD00BFA0690028FE
:1047E000306845D040F480503060FEF765FC0546E7
:1047F000306880049BD4FEF75FFC401B0228F7D989
:10480000032001B0F0BD00BFD6F8000440F4807072
:10481000C6F80004FEF750FC054600BFD6F80004B9
:10482000C00519D4FEF748FC401B6428F6D90320C4
:1048300001B0F0BD20F001007067FEF73DFC0546B9
:10484000706F80077FF570AFFEF736FC401B0228C3
:104850004FF00300F4D9A9E6A168306F002943D0D6
:10486000052939D0012957D140F001005AE000BF95
:1048700020F480503060FEF71FFC0546306880044D
:104880007FF555AFFEF718FC401B02284FF00300E0
:10489000F4D98BE6306820F080703060FEF70CFCB5
:1048A000022D05460CD100BF306880014CD5FEF7C3
:1048B00003FC401B02284FF00300F5D976E600BF49
:1048C000306880017FF56CAFFEF7F6FB401B0228D5
:1048D0004FF00300F4D969E640F004003067306F10
:1048E00040F001001EE000BF20F001003067306F93
:1048F00020F004003067FEF7DFFB054641F2883701
:10490000306F80077FF516AFFEF7D6FB401BB8422D
:104910004FF00300F4D949E620F001003067306F12
:1049200020F004003067FEF7C7FB054641F28837E8
:10493000306F80073FF5FEAEFEF7BEFB401BB8426E
:104940004FF00300F4D931E604F12807B06A40F2D1
:10495000F33188438ECF0843591E40EA02104FF4CA
:104960007E426FF35F21B06202EB47204FF4FE02FC
:1049700080B2E36B0844A16B02EB01414FF0FE42B1
:1049800001F4FE0102EB0362084402F0FE41084418
:104990003063F06A4FF6F87120F00100F062706B3E
:1049A000A26C884340EAC2007063F06A216C20F078
:1049B0000C000843F062F06A616C20F002000843CA
:1049C000F062F06A40F48030F062F06A40F4003047
:1049D000F062F06A40F48020F062F06A40F001007A
:1049E000F062306840F080703060FEF765FB04468E
:1049F000306880013FF5D4AEFEF75EFB001B022855
:104A00004FF00300F4D9D1E5F06A20F00100F06224
:104A1000FEF752FB0546FEF74FFBA842FBD0706B3A
:104A20004FF6F871A26C884340EAC2007063F06AE6
:104A300040F00100F062002001B0F0BD0000000075
:104A4000411E0020B0EB116F02D00120704700BF63
:104A50004EF21002F023CEF2000251604EF62351C6
:104A6000CEF200010B7007219060116070470000CA
:104A700070470000000000007047000000000000C8
:104A8000704700000000000090F83C20012A4FF021
:104A900002025ED0B0B580F83D2040F2004C0268C2
:104AA000C4F2010C42F4806363455368D2F808E015
:104AB00002BF23F470034C68234341F2FF740D6876
:104AC000C4F2000423F07003A24243EA05035360DA
:104AD0000CDC40F2FF73C4F200039A4216DCB2F120
:104AE000804F29D040F2004318E000BF40F2FF336E
:104AF000C4F201039A4217DC41F60003C4F200033A
:104B00009A4219D00023C4F2010309E040F60003E1
:104B1000C4F200039A420FD040F60043C4F20003EF
:104B20009A4209D00DE000BF44F20003C4F2010331
:104B30009A4201D0624504D12EF08003896819435E
:104B400091600022012180F83D1080F83C20BDE8F2
:104B5000B04010467047000060B310B5044690F8AE
:104B60003D0028B9002084F83C00204600F024F8DD
:104B7000022084F83D002068211D01F025FF01205E
:104B800084F8480084F83E0084F83F0084F8400030
:104B900084F8410084F8420084F8430084F844001B
:104BA00084F8450084F8460084F8470084F83D0006
:104BB000002010BD0120704710B582B040F20041C6
:104BC0000068C4F20001884214D0B0F1804F2BD1AC
:104BD00044F2E8400122C5F602001C24016841F0BD
:104BE000010101600068022100F0010001900198BC
:104BF0001C2010E044F2E8400022C5F602001D240B
:104C0000016841F0020101600068022100F0020029
:104C1000009000981D20FEF7EBFA204602B0BDE898
:104C20001040FEF7D1BA00BF02B010BD0000000076
:104C300090F83D1001291BD1022180F83D10016838
:104C400041F2FF70C4F200008142C86840F00100E8
:104C5000C8600FDC40F2FF70C4F20000814217DC34
:104C6000B1F1804F2CD040F20040C4F2000025E0AA
:104C70000120704740F2FF30C4F20100814213DC92
:104C800041F60000C4F20000814219D0002013E078
:104C900040F60000C4F20000814211D040F600400E
:104CA000C4F200000AE000BF44F20000C4F20100B8
:104CB000814205D040F20040C4F2010081420BD194
:104CC00007228868C0F2010202400020062A18BFAD
:104CD000B2F5803F00D17047086840F001000860DD
:104CE000002070470000000090F83C20012A4FF09F
:104CF000020200F0AA8080B580F83D208822D0F81A
:104D000000C0CFF6CE72DCF808301A40CCF808208C
:104D10000B686F2B0EDDB3F1101F37DAB3F5005FB0
:104D20006EDA702B00F0B680B3F5805F00F08480FF
:104D3000D8E000BF2F2B33DD4F2B39DC302B6FD069
:104D4000402B40F0CF80D1F804E0C968DCF8203077
:104D5000DCF8202022F00102CCF82020DCF818201A
:104D600022F0F00242EA011123F00A02CCF81810F6
:104D700042EA0E01CCF820104FF68872DCF80810D9
:104D8000CFF6CF721140473154E000BF2F21C0F25F
:104D900010018B423ADCB3F1101F41D020213BE0DF
:104DA000002B18BF102B3BD0202B39D09AE000BF2E
:104DB000502B4DD0602B40F09580D1F804E0C968AD
:104DC000DCF82030DCF8202022F01002CCF8202083
:104DD000DCF8182022F4704242EA013123F0A002EC
:104DE000CCF8181042EA0E11CCF820104FF6887259
:104DF000DCF80810CFF6CF72114067311AE000BF1F
:104E00005CD0B3F5801F0BD06CE000BF3021C0F246
:104E100010018B4204D04021C0F210018B4261D1BD
:104E20004FF68872DCF80810CFF6CF7211401943A4
:104E300041F00701CCF808100022012180F83D1054
:104E4000002180F83C10BDE880401046704700BF4C
:104E5000D1F804E0C968DCF82030DCF8202022F02A
:104E60000102CCF82020DCF8182022F0F00242EAFF
:104E7000011123F00A02CCF8181042EA0E01CCF816
:104E800020104FF68872DCF80810CFF6CF72114070
:104E90005731CFE701F1040E9EE80C40DCF8081012
:104EA0001A4321F47F4142EA0E221143CCF8081044
:104EB000DCF8081041F07701BCE700BF01F1040EF7
:104EC0009EE80C40DCF808101A4321F47F4142EAC6
:104ED0000E221143CCF80810DCF8081041F4804190
:104EE000A8E700BF0122A8E770470000000000000B
:104EF000F0B581B004460068C5680669B10717D5EA
:104F000015F0020114D06FF0020101610121217737
:104F10008069800704D02046FFF7E6FF06E000BF67
:104F2000204600F09DF8204600F09EF800202077F3
:104F3000700719D515F0040016D020686FF0040131
:104F4000016102212177806910F4407F04D020465E
:104F5000FFF7CAFF06E000BF204600F081F82046B8
:104F600000F082F800202077300717D515F00800F0
:104F700014D020686FF00801016104212177C06915
:104F8000800703D02046FFF7AFFF05E0204600F082
:104F900067F8204600F068F800202077F00619D561
:104FA00015F0100016D020686FF010010161082183
:104FB0002177C06910F4407F04D02046FFF794FFAA
:104FC00006E000BF204600F04BF8204600F04CF809
:104FD00000202077F00718BF15F0010006D02068E8
:104FE0006FF001010161204600F042F805F08007F2
:104FF00016F4025F18BF002F02D1F00509D410E0AB
:1050000020686FF4025101612046FFF735FDF0057D
:1050100007D537B120686FF4807101612046FFF732
:1050200027FD700609D515F0400006D020686FF006
:1050300040010161204600F05FF8B0060CD515F084
:10504000200009D020686FF020010161204601B0E6
:10505000BDE8F040FFF714BD01B0F0BD0000000056
:1050600070470000000000007047000000000000D2
:1050700010B540F258320168C2F200421268914203
:1050800012D140F28442C2F20042D2F88820202A93
:105090000AD140F2844316A1C2F200430122044621
:1050A000184600F061FF216840F2A430C2F20040CF
:1050B0000068814218BF10BD40F21850C2F2004093
:1050C000D0F88800202811D1FCF79EFB40F2CC00DC
:1050D0003322C2F2004000F14A0140F21850C2F2FD
:1050E0000040BDE8104000F03FBF00BF10BD00BF52
:1050F00030000000000000007047000000000000C9
:1051000090F88410012901D1022070472421C0F8B1
:10511000881001680A680B6822F0005223F001032E
:105120000B60002343660A602021C0F8881080F8D5
:10513000843000207047000070470000000000002D
:10514000704700000000000090F88420012A01D17F
:105150000220704770B52422C0F888200268D0F879
:1051600064E0BEF1000FD2F800C0136823F0010321
:105170001360936823F0606341EA0301916019D0E2
:10518000916849F2280E9368C0F6000E5B0F49F251
:105190003005C1F34266C0F600051EF80340E95C25
:1051A0002301B3FBF1F11EF80630AE5D1B01B3FB2A
:1051B000F6F301E001210123A0F86A102021A0F8F4
:1051C0006830C2F800C0C0F88810002180F8841050
:1051D000002070BD0000000090F88420012A01D159
:1051E0000220704770B52422C0F888200268D0F8E9
:1051F00064E0BEF1000FD2F800C0136823F0010391
:105200001360936823F0604341EA0301916019D071
:10521000916849F2280E9368C0F6000E5B0F49F2C0
:105220003005C1F34266C0F600051EF80340E95C94
:105230002301B3FBF1F11EF80630AE5D1B01B3FB99
:10524000F6F301E001210123A0F86A102021A0F863
:105250006830C2F800C0C0F88810002180F88410BF
:10526000002070BD0000000070470000000000003A
:1052700070470000000000007047000000000000C0
:1052800070B5016840F62F02CB691A40202A0A68DF
:105290008E680BD102F0200406F080552D1917D02E
:1052A000416F69B3BDE87040084700BF40F60F0585
:1052B0002B420DD0012540F22014C1F20005C0F2AE
:1052C000004406EA050C02EA040515EB0C0525D19D
:1052D000DD06C46E16D5012C14D112F0100511D0C4
:1052E00010220A628968490666D4B0F85C10B0F8EA
:1052F0005E20B0F85E30002B18BF914240F05C8217
:1053000070BD00BFDD0215D516F4800512D04FF434
:1053100080120A62BDE87040FFF7AABFDD0718BF20
:1053200012F4807540F01E819D0706F0010E00F119
:1053300025812EE1190606D502F0800106F400064B
:10534000891940F0BF82590640F1008112F04001F6
:1053500000F0FC80016851E8001F026821F0400164
:1053600042E80013F3B1016851E8001F026821F020
:10537000400142E80013002B1FBF016851E8001FE5
:10538000026821F040011CBF42E80013002B09D045
:10539000016851E8001F026821F0400142E8001353
:1053A000002BD7D12021C0F8881000218167BDE8EB
:1053B000704000F071BE00BFD0F880100A685268DB
:1053C00093B2002B9CD0B0F85C60B34298D2A0F8A6
:1053D0005E20C969B1F5807F00F0AC80016851E8BA
:1053E000001F026821F4807142E80013F3B10168E4
:1053F00051E8001F026821F4807142E80013002B7D
:105400001FBF016851E8001F026821F480711CBFB2
:1054100042E80013002B09D0016851E8001F026820
:1054200021F4807142E80013002BD7D1016851E8C4
:10543000021F026821F0010142E80213F3B1016882
:1054400051E8021F026821F0010142E80213002B1B
:105450001FBF016851E8021F026821F001011CBF53
:1054600042E80213002B09D0016851E8021F0268CC
:1054700021F0010142E80213002BD7D1016851E865
:10548000021F026821F0400142E80213F3B10168F3
:1054900051E8021F026821F0400142E80213002B8C
:1054A0001FBF016851E8021F026821F040011CBFC4
:1054B00042E80213002B09D0016851E8021F02687C
:1054C00021F0400142E80213002BD7D12021C0F87F
:1054D0008C100021C166016851E8001F026821F0AC
:1054E000100142E80013F3B1016851E8001F02689F
:1054F00021F0100142E80013002B1FBF016851E8A2
:10550000001F026821F010011CBF42E80013002BAD
:1055100009D0016851E8001F026821F0100142E83B
:105520000013002BD7D1D0F8801004460846FCF7B2
:105530009FF9204602210167B0F85C10B0F85E20A8
:10554000891A89B2BDE87040FFF7F6BD190240F133
:10555000C58112F0804100F0C181BDE87040FFF7C5
:1055600083BE00BF01250D62D0F8905045F00105C3
:10557000C0F890509D0706F0010E0AD5BEF1000F4D
:1055800007D002240C62D0F8904044F00404C0F824
:1055900090405C070AD5BEF1000F07D004250D62CC
:1055A000D0F8905045F00205C0F890501D070CD57A
:1055B00002F0200555EA0C0507D008250D62D0F849
:1055C000905045F00805C0F890501D050BD512F01D
:1055D000806508D04FF400650D62D0F8905045F01A
:1055E0002005C0F89050D0F89050002D3FF488AEC0
:1055F0009B060BD502F0200206F08053D21805D08E
:10560000426F1AB10446904720462168D0F8902096
:10561000896801F0400102F02802891806D1044689
:10562000FFF72AFE0020C4F8900070BD016851E821
:10563000001F026821F4907142E80013F3B1016881
:1056400051E8001F026821F4907142E80013002B1A
:105650001FBF016851E8001F026821F490711CBF50
:1056600042E80013002B09D0016851E8001F0268CE
:1056700021F4907142E80013002BD7D14FF6FE7150
:10568000CEF6FF71026852E8022F03680A4043E831
:105690000226DEB1026852E8022F03680A4043E89E
:1056A0000226002E1FBF026852E8022F03680A403C
:1056B0001CBF43E80226002E08D0026852E8022FE1
:1056C00003680A4043E80226002EDBD1C16E01299F
:1056D00027D1016851E8001F026821F0100142E85B
:1056E0000013F3B1016851E8001F026821F01001B6
:1056F00042E80013002B1FBF016851E8001F026839
:1057000021F010011CBF42E80013002B09D00168F2
:1057100051E8001F026821F0100142E80013002B3D
:10572000D7D12021C0F88C100021C16602684167E2
:105730009168490640F1CE80016851E8021F026875
:1057400021F0400142E80213F3B1016851E8021F61
:10575000026821F0400142E80213002B1FBF0168DC
:1057600051E8021F026821F040011CBF42E8021309
:10577000002B09D0016851E8021F026821F04001A6
:1057800042E80213002BD7D1D0F88010002900F096
:10579000A18046F6A15204460846C0F600020A65FA
:1057A000FCF7FAFA00283FF4ABADD4F88000016DA5
:1057B000BDE87040084700BF891A026852E8002F10
:1057C000036822F4907243E80026F6B1026852E8BA
:1057D000002F036822F4907243E80026002E1FBFBA
:1057E000026852E8002F036822F490721CBF43E85D
:1057F0000026002E09D0026852E8002F036822F428
:10580000907243E80026002ED7D14FF6FE72CEF6F6
:10581000FF72036853E8023F0668134046E802350A
:10582000DDB1036853E8023F0668134046E80235DD
:10583000002D1FBF036853E8023F066813401CBFDA
:1058400046E80235002D08D0036853E8023F066899
:10585000134046E80235002DDBD12022C0F88C2011
:105860000022C2664267026852E8002F036822F0F5
:10587000100243E80026F6B1026852E8002F0368E0
:1058800022F0100243E80026002E1FBF026852E8F3
:10589000002F036822F010021CBF43E80026002EF0
:1058A00009D0026852E8002F036822F0100243E892
:1058B0000026002ED7D189B202220267BDE87040CF
:1058C000FFF73ABC816F00293FF41AADBDE8704084
:1058D000084700BFBDE87040FFF7CEBCD9017FF597
:1058E0000FADB2F1FF3FC8BF70BDBDE87040FFF71C
:1058F00027BC00000000000010B5D8B10446D0F865
:10590000880028B9002084F88400204600F028F898
:105910002420C4F888002068A16A0268002922F0C7
:105920000101016002D0204601F012F9204601F089
:105930003BFF08B1012010BD2068416821F490416F
:105940004160816821F02A018160016841F0010114
:1059500001602046BDE8104001F06AB90000000077
:105960002DE9F041B8B000210446CDE93611CDE96A
:105970003411339102A8C021FAF7E2FC47F2FF711B
:105980002068C4F2000188424ADD47F60001C4F2F3
:105990000001884200F0868041F20001C4F201015A
:1059A000884200F0B58041F20041C4F20101884212
:1059B00040F059810120029002A800240394FDF7D1
:1059C000BBFD08B1FBF714FF44F2E040C5F602004E
:1059D000016941F020010161016901F0200101919B
:1059E0000199016841F004010160006840F2004142
:1059F00000F004000190C5F602010198C020339028
:105A000002203694CDE934040720379001F58060F8
:105A100033A9FDF76DFA47200321032247241DE136
:105A200044F20041C4F20001884200F0E38045F2F4
:105A30000001C4F20001884240F0158102A8002450
:105A4000039402250295FDF777FD08B1FBF7D0FE20
:105A500044F2E040C5F60200816841F480118160A3
:105A6000816801F4801101910199016841F00201FE
:105A70000160006833A900F00200019001984FF422
:105A80004050CDE933050E20379040F20040C5F676
:105A90000200CDE93544FDF72BFA3520032102221F
:105AA0003524DBE002A80024039402250295FDF7CB
:105AB00043FD08B1FBF79CFE44F2E040C5F602004E
:105AC000816841F080418160816801F080410191ED
:105AD0000199016841F020010160006840F2004135
