:020000040800F2
:1000000088110024AD020008A9700008616A000888
:10001000A1700008710C0008598800080000000059
:1000200000000000000000000000000069730008EC
:100030002116000800000000B1700008717300086C
:10004000C7020008C7020008C7020008C70200086C
:10005000C7020008C7020008C7020008C70200085C
:10006000C7020008C7020008C7020008790C000890
:10007000890C0008990C0008A90C0008B90C0008AC
:10008000C90C0008D90C0008C7020008C702000804
:10009000C7020008C7020008C7020008C70200081C
:1000A000C7020008C7020008C7020008C70200080C
:1000B000F974000809750008C7020008C7020008A3
:1000C000C7020008C7020008C7020008C7020008EC
:1000D000C702000819880008298800083988000824
:1000E000C7020008C702000800000000C70200089D
:1000F000C7020008C7020008C7020008E90C000890
:10010000C7020008C7020008C7020008C7020008AB
:10011000C702000829750008C7020008C7020008C6
:10012000F90C0008090D0008190D0008290D000838
:10013000C7020008C7020008C7020008C70200087B
:1001400000000000000000000000000000000000AF
:10015000C7020008C7020008C70200084988000853
:10016000C7020008C7020008C7020008C70200084B
:10017000C7020008C7020008C7020008C70200083B
:10018000C7020008C702000839750008C702000846
:10019000C7020008C7020008C7020008C70200081B
:1001A000C7020008C7020008C7020008C70200080B
:1001B000C7020008C7020008C7020008C7020008FB
:1001C000C7020008C7020008C7020008C7020008EB
:1001D000C7020008C7020008C7020008C7020008DB
:1001E000C7020008C7020008C7020008C7020008CB
:1001F000C7020008C7020008C7020008C7020008BB
:10020000C7020008C7020008C7020008C7020008AA
:10021000C7020008C7020008C7020008C70200089A
:10022000C7020008C7020008C7020008000000005B
:10023000C7020008C702000800000000C70200084B
:10024000C7020008C7020008C7020008C70200086A
:10025000C7020008C7020008C7020008C70200085A
:10026000C7020008C7020008C7020008C70200084A
:10027000C7020008C7020008C7020008000000000B
:10028000C7020008C7020008C702000800000000FB
:1002900000000000C7020008DFF80CD000F00CF9E5
:1002A000004800474189000888110024064880471B
:1002B00006480047FEE7FEE7FEE7FEE7FEE7FEE74B
:1002C000FEE7FEE7FEE7FEE7797400089902000802
:1002D0002DE9F05F0546002092469B46884606467B
:1002E000814640241BE0284641464746224600F00E
:1002F00084F853465A46C01A914110D31146184605
:10030000224600F06BF82D1A67EB01084F46224693
:100310000120002100F062F817EB00094E41201E79
:10032000A4F10104DFDC484631462A464346BDE8D5
:10033000F09FD2B201E000F8012B491EFBD27047BA
:100340000022F6E710B513460A4604461946FFF7A1
:10035000F0FF204610BD30B505462A460B4612F880
:10036000010B13F8014B08B1A042F8D01CB10028D2
:1003700002D06D1CF1E7284630BD30B5054600209F
:10038000034600E05B1C934205D2EC5CC85C201A7B
:1003900001D1002CF6D130BD70B50F4D00B92868E1
:1003A000002412E00A4602E09E4203D0521C137859
:1003B000002BF9D1DAB2224305D02BB124B10021B0
:1003C00000F8011B04E00446401C0678002EE9D129
:1003D0002860204670BD000000000024202A04DBB5
:1003E000203A00FA02F1002070479140C2F1200348
:1003F00020FA03F3194390407047202A04DB203A87
:1004000021FA02F00021704721FA02F3D040C2F134
:100410002002914008431946704700000FB40023A2
:1004200000B589B00CA900910B996FF00042CB6028
:100430001E4B06931E4B07930423CDE901321D4A40
:10044000089202466B46002000F0E2F809B05DF821
:1004500014FB70B586B006464FF0FF300091CDE931
:100460000101002015460C4604903246694604A856
:10047000FFF7D4FF03460498211825B108B10A46B6
:1004800000E022462A6000280DD0002B02DD0098F3
:10049000884208D0081B0094CDE901043246694621
:1004A00004A8FFF7BBFF06B070BD000049080008B4
:1004B00067080008DD040008064C074D06E0E06808
:1004C00040F0010394E8070098471034AC42F6D39B
:1004D000FFF7E6FEB4940008D4940008C0B24FF4CD
:1004E000F05100F0D1B900002DE9FF4F087883B03A
:1004F0009946FF2805D0491C2D2804D0002400204F
:1005000008E000200BE00124F9E700EB800003EB9A
:100510004000491C0B78FF2BF7D104B14042002367
:100520000293147819461D462D2C01D02B2C04D192
:10053000521C2D2C13D000240294AA461478FF2CB0
:100540000FD00A25A3FB057801FB05814FF0000CB5
:1005500003FB0C11521CE3194AEB0101EEE70124E5
:10056000EAE7814453EA010002D019F5C87F06DAB0
:1005700003980021C0E9001107B0BDE8F08F002505
:10058000AE4E2F46DFF8B882184600F072FACDE979
:100590000001B9F1000002DAC9F1000400E00446EC
:1005A0000023A74A1AEB030B42EB045A12E0E007C0
:1005B00007D02A4633463846414600F079F90746C7
:1005C00088462A4633461046194600F071F905461A
:1005D0000E466410002CEAD1DDE90001B9F1000FEC
:1005E0005A46534606DA00F0D5F93A46434600F03B
:1005F000D1F905E000F05CF93A46434600F058F9BD
:10060000029A0AB181F00041039AC2E90001B3E7FE
:100610002DE9FF4F1F468DB0D7E901464FF0FF3857
:100620002E2045464FF000090B90B9696D1C0E98BD
:100630008847396A824688470028F6D1BAF1FF3FD9
:100640000AD024F4D064002E11DDBAF12B0F08D0AB
:10065000BAF12D0F0BD102E0404611B08DE744F402
:100660008064B9696D1C0E9888478246761E69467B
:10067000600501D52D2000E02B208DF8000001F150
:10068000010B0DF1200809E0B9696D1C0E9888472F
:1006900082460F9844F40074761E0560002E02DD39
:1006A000BAF1300FF0D00B998A453ED144F0800466
:1006B00006E00F99681CA9F1010944F40074086070
:1006C000B9696D1C761E0E98884782463028F0D096
:1006D0002BE00B998A4505D1200603D444F0800411
:1006E000761E18E0504608F087FE08B30DF113019E
:1006F000761E44F400748B4508D2AAF130000BF842
:10070000010B200607D5A9F1010003E0200602D461
:1007100009F101008146A00502D50F99681C086007
:10072000B9696D1C0E9888478246002ED1DC53E0D3
:10073000002E51DDBAF1650F02D0BAF1450F4BD151
:10074000A00549D5B9696D1C24F44074761E0E9835
:1007500088478246002E0CDD2B2804D0BAF12D0FDD
:1007600007D144F48074B9696D1C0E98884782469D
:10077000761EE00501D52D2100E02B2108F8011B94
:10078000CDF82C8021E00DF12901761E44F400748F
:1007900088450CD2AAF1300010F0FF0088F8000064
:1007A00002D10B99884509D908F1010806E0E00556
:1007B00001D5244801E042F20F708146B9696D1CF1
:1007C0000E98884782460F980560002E04DD50463B
:1007D00008F012FE0028D6D1F9690E988847FF204C
:1007E0008BF8000088F800000020069007904B4628
:1007F0006A4608A906A8FFF777FEA00502D46FF0A5
:1008000001002AE714F0240F0AD0E00714D1DDE933
:1008100006123868031D3B600068C0E900120BE057
:10082000DDE9060100F031F90146E00704D138683E
:10083000021D3A600068016028460EE7000014407F
:100840000000F03FF1D8FFFF426842B1016811F8A3
:10085000013B23B1521EC0E9001218467047012126
:10086000C160881E704742685AB1C368016843B9C5
:1008700083688B4205D0491E521CC0E9001200203B
:1008800070474FF0FF3070477F2801D9002208E001
:10089000064A02EB5002C007127800D1120902F09A
:1008A0000F02012090400840704700002894000883
:1008B0002DE9FE4F81EA030404F0004421F00041D9
:1008C00000944FF0000B23F0004350EA01045ED087
:1008D00052EA03045BD0C3F30A54C1F30A552C4413
:1008E000A4F2F3340194A0FB0254C1F3130141F4C8
:1008F0008011C3F3130343F4801301FB024400FB94
:10090000034E840A970A44EA815447EA8357A4FBBA
:10091000076802958D0A05FB07854FEA932C04FBB7
:100920000C542705029D4FEA065847EA1637B5EBE7
:1009300008056EEB070C870E920E47EA811742EA14
:100940008312A7FB0201B6EB0B0164EB00042B0D35
:1009500043EA0C335E1844EB1C50DA465146E7FB81
:100960000201C5F313044FEA0B3343EA14534FEA71
:100970000432019C43EA0603A4F10C040294009C97
:10098000CDE900B400F0E3F803B0BDE8F08F00203B
:100990000146F9E72DE9F04D81EA030404F0004B2C
:1009A00021F0004514464FF0000A23F0004150EAC0
:1009B000050220D054EA01021DD0C5F30A570246B1
:1009C000C5F31303C1F31300C1F30A5640F48015B5
:1009D00043F48013A7EB0608101BD64608F2FD3837
:1009E00073EB050002D308F1010801E092185B41A6
:1009F000B8F1000F03DA00200146BDE8F08D0020B9
:100A00004FF48011064684460EE0171B73EB050772
:100A100005D3121B63EB050306434CEA010C49089E
:100A20004FEA300092185B4150EA0107EDD152EADB
:100A3000030012D082EA040083EA0501084305D0CE
:100A4000101BAB4106D20122002306E000224FF02A
:100A5000004302E06FF0010253101AEB06004CEB6A
:100A6000085110EB0A0041EB0B01BDE8F04D00F01E
:100A70005FB80EB540F2334202920022CDE9002267
:100A8000134600F064F803B000BD01F0004330B439
:100A900021F0004150EA010206D00A0DA2F5607271
:100AA000C1F31301002A02DC30BC00207047440F60
:100AB00044EAC104C100E01830BC00EBC250AFF3FF
:100AC00000800029A8BF7047401C490008BF20F0E3
:100AD0000100704710B4B0FA80FC00FA0CF050EA44
:100AE000010404BF10BC704749B1CCF1200421FAC5
:100AF00004F411FA0CF118BF012121430843A3EBC0
:100B00000C01CB1D4FEA00614FEA102042BF0020CC
:100B100010BC704700EBC35010440029A4BF10BCA8
:100B20007047401C490008BF20F0010010BC70470E
:100B300010B5141E73F1000408DA401C41F10001E5
:100B400092185B411A4301D120F0010010BD2DE93C
:100B5000F04D92469B4611B1B1FA81F202E0B0FA33
:100B600080F220329046FFF739FC04460F4640EAF7
:100B70000A0041EA0B0153465A46084313D0114676
:100B800053EA010019D0C8F140025046FFF735FC86
:100B900005460E46504659464246FFF71FFC08439D
:100BA00005D0012004E020463946BDE8F08D002044
:100BB000054346EAE0762C4337430A986305E40A86
:100BC000A0EB08000022FD0A44EA47540A3002D58F
:100BD00000200146E9E7010510196941DDE90845F2
:100BE00000196941BDE8F04DA2E7000000000000D7
:100BF00080B540F2481C00229FED1B0BC2F2004C56
:100C0000CCF8002090F804E08CF808E00EF07F0E9D
:100C1000C3788CF8093003F07F03817843EACE1360
:100C20008CF80A1001F07F01427841EAC3118CF878
:100C30000B2002F07F02007842EAC11100F07F022F
:100C400042EAC11101EE101AB8EEC11B8CF80C007B
:100C5000CCF8041081EE000BB7EEC00B8CED000A4F
:100C600080BD00BF00BF00BF00000014CAA99F41A3
:100C7000FEE700000000000040F2E040C2F2004049
:100C800001F042B90000000040F26050C2F20040A2
:100C900001F03AB90000000040F2E060C2F200400A
:100CA00001F032B90000000040F26070C2F2004072
:100CB00001F02AB90000000040F2E050C2F200400A
:100CC00001F022B90000000040F26060C2F2004072
:100CD00001F01AB90000000040F2E010C2F200403A
:100CE00001F012B90000000040F26020C2F20040A2
:100CF00001F00AB90000000040F2A000C2F200407A
:100D000001F002B90000000040F26010C2F20040A1
:100D100001F0FAB80000000040F24030C2F200409A
:100D200001F0F2B80000000040F20040C2F20040C2
:100D300001F0EAB800000000002808BF7047002951
:100D40001FBFD0E900238068C1E900238860704795
:100D500010B50446002C08BF10BD2046C021FFF787
:100D6000EFFA01204CF6CD4184F8BC0084F8BD00B8
:100D700084F8BE004DF20A70C3F64C61C3F62340FE
:100D8000C4E9300110BD00002DE9F04F78B1002A10
:100D90001CBF90F85130002B09D0012B0DD1D0E9A8
:100DA00000138068C2E900139060BDE8F08F002056
:100DB000C2E900009060BDE8F08F90F850C046F2A4
:100DC0006768A3F1010E0025C6F266680CF1040401
:100DD00054FB08F35E1006EBD37303EB8303A4EB21
:100DE000030A00EB8A03D3F83CB08B450ED8631C92
:100DF00053FB08F6771007EBD67606EB8606A3EBD7
:100E0000060900EB8903DB6B8B4210D20135013CF4
:100E10007545DDDB0CEB4C0150F8213000EB810017
:100E20001360D0E90110C2E90110BDE8F08F1AF19A
:100E3000010718BF19F10107ECD00AEB4A0700EED1
:100E4000103A03EE101A01EE10BA00EB8701B8EE6B
:100E5000402AB8EE411AB8EE433A91ED000AB4EEDA
:100E6000C12AF1EE10FA20DD09EB490332EE414AC6
:100E700033EE415A9FED3F6AF7EE001A00EB830311
:100E800085EE045A91ED014A93ED007AD3ED010A03
:100E900085FE065A85FE615A30EEC46A37EE407A06
:100EA00005EE064A05EE070A01E091ED014A09EB5D
:100EB000490382ED000A82ED014A9FED2F4A00EBC3
:100EC000830091ED020A90ED025A35EE406AB4EECD
:100ED000C46AF1EE10FA02DD9FED2A6A08E09FED88
:100EE000277AB4EEC76AF1EE10FA03DA9FED246AAE
:100EF00035EE065AB4EEC12AF1EE10FA11DD32EEEB
:100F0000412A33EE411A9FED1B3A81EE021AB7EEE9
:100F1000002A81FE031A35EE403A81FE421A01EEA4
:100F2000030AB4EEC40A82ED020AF1EE10FA0ADDF9
:100F30009FED141A30EE010AB4EEC40AF1EE10FA75
:100F4000F8DC82ED020A9FED0D1AB4EEC10AF1EE53
:100F500010FAA8BFBDE8F08F9FED092A30EE020A13
:100F6000B4EEC10AF1EE10FAF8DB82ED020ABDE838
:100F7000F08F00BF00000000DB0F4940DB0F49C0CD
:100F8000DB0FC940DB0FC9C02DE9F04778B1002A5B
:100F90001CBF90F83130002B09D0012B0DD1D0E9C6
:100FA00000138068C2E900139060BDE8F08700205C
:100FB000C2E900009060BDE8F08790F830C045F2CB
:100FC0005658A3F1010E0024C5F255580CF1020346
:100FD00053FB08F505EBD57505EB4505A3EB050AB5
:100FE00000EB8A06776A8F420DD85E1C56FB08F527
:100FF00005EBD57505EB4505A6EB050900EB890565
:101000006E6A8E4210D20134013B7445E0DB0CEB7A
:101010004C0150F8213000EB81001360D0E9011041
:10102000C2E90110BDE8F0871AF1010318BF19F1F8
:101030000103ECD00AEB4A0300EE106A01EE107ACD
:1010400000EB8303B8EE402AB8EE411A93ED000A94
:10105000B4EEC12AF1EE10FA2EDD03EE101A09EB00
:10106000490132EE412AB7EE006AB8EE433A00EB8E
:10107000810033EE411A9FED153A90ED015A90ED43
:10108000004A81EE021A93ED012A81FE031A34EE22
:10109000404A81FE463A35EE421A03EE012A03EE3B
:1010A000040A82ED012A93ED021A90ED022A32EE33
:1010B000412A03EE021A03E05868506093ED021AC9
:1010C00082ED000A82ED021ABDE8F0870000000000
:1010D000002808BF7047002180EC030A80F85510F3
:1010E00080F8A91080F8B810C0E90311C0E9051113
:1010F000C0E9071170470000002808BF70470029A9
:101100001FBFD1E900238968C0E92F23C0F8C410AC
:101110007047000000000000002818BF00292FD0F1
:1011200010B590F8A83000F1580403F1010C4CF60A
:10113000CD43CCF6CC43ACFB033E4FEA9E0303EB1E
:101140008303ACEB030380F8A83003EB4303D1E93E
:1011500000CE896844F823C004EB8303C3E901E1AE
:1011600090F8A81004EB8101CA6390F8A910042933
:10117000BDE810409CBF013180F8A910C0F8B02034
:101180007047000000000000002818BF80ED020A30
:10119000704700000000000070B52DED108B86B088
:1011A00004460D46002C00F08A8194F85500002872
:1011B0001CBF94F8A900002800F0818194F8B810B1
:1011C00004F1240004F15806C9B1D4F8B4109FED1D
:1011D000BE0A691A01EE101AB8EE411A81EE00DA61
:1011E000B5EEC0DAF1EE10FA06DD94ED310AB4EE98
:1011F000C0DAF1EE10FA14DDC4F8B4505FE1012159
:10120000C4F8B45084F8B81094F8BD10C1B103AA62
:101210002946FFF7B9FE6A4630462946FFF7B4FD76
:1012200026E094F8BD10002900F0858003AA294625
:10123000FFF7AAFE6A4630462946FFF7A5FD92E071
:1012400094F8540000EB400004EB8000D0E9091250
:10125000C06A0590CDE9031294F8A80000EB4000A5
:1012600004EB8000D0E91612006E0290CDE9001266
:101270009DED000A07F050FEB0EE408A9DED000A99
:1012800007F0FCFEB0EE409A9DED010A07F044FE27
:10129000B0EE40AA9DED010A07F0F0FEB0EE40BAB4
:1012A0009DED020A07F038FEB0EE40CA9DED020A3D
:1012B0002BEE0CDA29EE0DEA07F0E0FE9DED043A84
:1012C0009DED032A9DED054A2BEE001A08EE40EA3B
:1012D00004F10C022AEE006A29EE000A2AEE0C7ACA
:1012E00069EE0A1A04F1180329EE015A28EE011AD0
:1012F00008EE0D0A08EE0C5A09EE4C1A6EEE030ABF
:1013000026EE026A47EE020A03EE056A40EE040A80
:1013100001EE046AC4ED030A21EE837A28EE0A0A7C
:1013200084ED046A0BEE427A00EE047A84ED057ACD
:1013300007CA07C3C3E094F8540000EB400004EB75
:101340008000D0E90912C06A0590CDE9031294F833
:10135000A80000EB400004EB8000D0E91612006EFC
:101360000290CDE900129DED000A07F0D5FDB0EE28
:10137000408A9DED000A07F081FEB0EE409A9DED97
:10138000010A07F0C9FDB0EE40AA9DED010A07F081
:1013900075FEB0EE40BA9DED020A07F0BDFDB0EE5D
:1013A00040CA9DED020A2BEE0CEA29EE0EFA07F078
:1013B00065FE9DED032A9DED043A2BEE001A9DED8E
:1013C000054A2AEE006A08EE40FA29EE015A28EE94
:1013D000011A26EE026A29EE000A2AEE0C7A6FEE56
:1013E000030A69EE0A1A08EE0C5A09EE4C1A47EE87
:1013F000020A08EE0E0A03EE056A40EE040A01EE48
:10140000046AC4ED030A21EE837A28EE0A0A26EE66
:10141000068A0BEE427A84ED046A00EEA08A00EEA2
:10142000047AB0EE480A84ED057A07F0EFFEB4EED8
:10143000400AF1EE10FA03D0B0EE480A07F0E6FEDB
:1014400094ED301A04F10C00B4EEC10AF1EE10FA7A
:1014500007DA9FED1E0A0021C4E90311B0EE401A1D
:1014600003E094ED031A94ED040A94F8BC1094ED93
:10147000002A91B194ED063AB6EE004A31EE031A15
:1014800021EE041A0DEE012A84ED002A94ED071ACC
:1014900030EE010A20EE040A03E00DEE012A84ED8D
:1014A000002A94ED011A0DEE001A84ED011AD0E91C
:1014B00000128068C4E906122062C4F8B45006B075
:1014C000BDEC108B70BD00BF00007A44000000002E
:1014D000002818BF00292FD010B590F8543000F123
:1014E000240403F1010C4AF6AB23CAF6AA23ACFB91
:1014F000033E4FEA5E0303EB4303ACEB030380F8C8
:10150000543003EB4303D1E900CE896844F823C08B
:1015100004EB8303C3E901E190F8541004EB81016B
:101520004A6290F855100229BDE810409CBF013175
:1015300080F85510C0F8AC20704700000000000093
:1015400080B5844600209CF850E0BEF1000F08BF33
:1015500080BDDCF844E0C1F800E0DCF84810116020
:10156000DCF84C1019608CF85000012080BD0000A0
:1015700080B55421FEF7E4FE80BD000000000000AD
:10158000B0B504460D2919D00A290FD1B4F840008E
:10159000002808BFB0BD00251EA104222554204606
:1015A000FEF7EBFE58B1A4F84050B0BDB4F84000CF
:1015B0003E289EBF421CA4F840202154B0BD201DEF
:1015C00016A1FEF7E9FE0028EDD007F089FCB7EE82
:1015D000C00B12A1002084ED110AFEF7DDFE0028E9
:1015E000E1D007F07DFCB7EEC00B0CA1002084ED2C
:1015F000120AFEF7D1FE0028D5D007F071FCB7EE35
:10160000C00B012084ED130A84F85000A4F8405068
:10161000B0BD00BF3A42492C000000002C00000081
:10162000704700000000000070470000000000004C
:1016300010EE101A0A0AC17082700A0C090E42706C
:10164000017070470000000040F2C0304FF4FF719D
:10165000C2F20040018040F21001C2F200410A785B
:1016600082700A7DC2704A7D02718A7D4271CA7D94
:1016700082710A7EC2714A7E02728A7E4272CA7E7C
:1016800082720A7FC2724A7F02738A7F4273CA7F64
:10169000827391F82020C27391F82120027491F88E
:1016A0002220427491F82320827491F82420C2747D
:1016B00091F82520027591F82620427591F827208F
:1016C000827591F82820C27591F82920027691F848
:1016D0002A20427691F82B20827691F82C20C2762F
:1016E00091F82D20027791F82E20427791F82F2043
:1016F000827791F83020C27791F8312080F820204D
:1017000091F8322080F8212091F8332080F82220AF
:1017100091F8342080F8232091F8352080F8242097
:1017200091F8362080F8252091F8372080F826207F
:1017300091F8382080F8272091F8392080F8282067
:1017400091F83A2080F8292091F83B2080F82A204F
:1017500091F83C2080F82B2091F83D2080F82C2037
:1017600091F83E2080F82D2091F83F2080F82E201F
:1017700091F8402080F82F2091F8412080F8302007
:1017800091F8422091F8431080F8312080F832100F
:10179000FF2180F8331070472DE9F04381B00446F3
:1017A00001F0E6FF0546002C02BF012001B0BDE8B4
:1017B000F08394F8350002281ED1276840F2B7095B
:1017C00040F2B848C4F20209C4F202084F4517DDDE
:1017D00040F25740C4F20200874222DC40F2274028
:1017E000C4F20200874237DCB820C4F2020087420C
:1017F0004FD040F2104047E08020606501202DE28C
:101800005720C4F2020087421ADD8720C4F202008A
:1018100087422ADC5820C4F20200874239D0702067
:1018200032E040F28740C4F20200874224DC40F2FA
:101830005840C4F2020087422BD040F2704023E0AF
:101840001020C4F2020087421EBF2820C4F202000A
:1018500087421ED0402017E040F22840C4F2020028
:10186000874216D040F240400EE08820C4F20200C9
:1018700087420ED0A02007E040F2A040C4F2020050
:10188000874206D040F28840C4F20200874240F00E
:101890005381386820F01E003946386051F8140F23
:1018A00020F0800040F26F460860C4F20206B742A2
:1018B00016DC9F20C4F2020087422CDC5720C4F2C1
:1018C000020087424FDC1020C4F2020087421EBF94
:1018D0002820C4F20200874200F08180402067E0A7
:1018E00045F22F40C5F60200874227DC40F2B740A0
:1018F000C4F20200874242DC40F27040C4F20200AF
:1019000087421EBF40F28840C4F20200874266D080
:1019100040F2A0404CE040F22740C4F2020087426F
:1019200038DCA020C4F2020087421EBFB820C4F2F7
:101930000200874253D040F2104039E045F26B403C
:10194000C5F60200874238DC45F23040C5F6020099
:1019500087421EBF45F24440C5F6020087423ED092
:1019600045F2584037E05820C4F2020087421EBFBB
:101970007020C4F20200874231D0882018E0474529
:101980001EBF45F20840C5F60200874227D045F247
:101990001C4020E040F22840C4F2020087421EBFF3
:1019A00040F24040C4F20200874218D040F2584052
:1019B000C4F20200874212D016E045F26C40C5F630
:1019C000020087421EBF45F29440C5F602008742DE
:1019D00005D045F28040C5F60200874204D1206E52
:1019E000016821F480710160386820F001003860DE
:1019F000386810F0010F0BD001F0BAFE401B06282A
:101A0000F6D320206065032084F83500012025E10D
:101A10002068484513DD40F25741C4F20201884274
:101A20001EDC40F22741C4F20201884233DCB821B7
:101A3000C4F2020188424AD040F2104143E05721EB
:101A4000C4F2020188421ADD8721C4F202018842F1
:101A50002ADC5821C4F20201884238D0702132E0D9
:101A600040F28741C4F20201884224DC40F258412E
:101A7000C4F2020188422AD040F2704123E01021D2
:101A8000C4F2020188421EBF2821C4F2020188422A
:101A90001DD0402117E040F22841C4F202018842E3
:101AA00015D040F240410EE08821C4F20201884284
:101AB0000DD0A02107E040F2A041C4F2020188420B
:101AC00005D040F28841C4F20201884257D1D4E9DE
:101AD000161202F01F023F2303FA02F28A60B0429C
:101AE00059DC9F21C4F20201884211DC5721C4F263
:101AF0000201884228DC1021C4F2020188421EBF84
:101B00002821C4F20201884200F0968040215CE066
:101B100040F22741C4F20201884221DCA021C4F234
:101B2000020188421EBFB821C4F20201884200F0BF
:101B3000838040F2104148E0386847453FF4AAAE40
:101B400020F00E003946ADE65821C4F20201884269
:101B50001EBF7021C4F2020188426DD0882134E09A
:101B600040F22841C4F2020188421EBF40F24041C7
:101B7000C4F2020188425FD040F2584125E0D4E926
:101B80001612404502F01F02A5D0012303FA02F20B
:101B90004A60B042A5DD45F22F41C5F602018842F8
:101BA00018DC40F2B741C4F20201884227DC40F25F
:101BB0007041C4F2020188421EBF40F28841C4F263
:101BC0000201884238D040F2A041C4F202018842AA
:101BD00032D03FE045F26B41C5F60201884219DC84
:101BE00045F23041C5F6020188421EBF45F244412C
:101BF000C5F6020188421FD045F2584118E0404521
:101C00001EBF45F20841C5F60201884214D045F2D4
:101C10001C410DE045F26C41C5F6020188421EBF31
:101C200045F29441C5F60201884205D045F2804153
:101C3000C5F6020188420DD1D4E919014160E06E78
:101C400000281FBF016821F480710160D4E91C01E4
:101C500018BF4160012084F835000020002184F87D
:101C6000341001B0BDE8F083E8B190F835100229D6
:101C700017D1016840F20F42C4F20202914215DC12
:101C80006F23C4F20203994225DC3F23C4F202030E
:101C900099423BDC1023C4F20203994259D0282315
:101CA00053E08021416501210846704740F26F43AF
:101CB000C4F2020399421ADC40F23F43C4F2020329
:101CC00099422ADC40F21043C4F20203994240D008
:101CD00040F2284339E09F23C4F20203994225DCF5
:101CE0007023C4F20203994233D088232DE040F2DE
:101CF0009F43C4F2020399421FDC40F27043C4F2D6
:101D00000203994225D040F288431EE04023C4F2EA
:101D1000020399421DD0582317E040F24043C4F219
:101D20000203994215D040F258430EE0A023C4F2BA
:101D3000020399420DD0B82307E040F2B843C4F241
:101D40000203994205D040F2A043C4F20203994233
:101D50006ED10423914280F8353010DC6F20C4F23C
:101D60000200814220DC3F20C4F20200814236DCC6
:101D70001020C4F20200814253D028204EE040F2ED
:101D80006F40C4F2020081421ADC40F23F40C4F2CC
:101D9000020081422ADC40F21040C4F2020081427B
:101DA0003FD040F2284039E09F20C4F20200814237
:101DB00025DC7020C4F20200814232D088202DE060
:101DC00040F29F40C4F2020081421FDC40F27040AA
:101DD000C4F20200814224D040F288401EE040203C
:101DE000C4F2020081421CD0582017E040F240406B
:101DF000C4F20200814214D040F258400EE0A0200C
:101E0000C4F2020081420CD0B82007E040F2B84092
:101E1000C4F20200814204D040F2A040C4F20200A9
:101E20008142086820F001000860002108467047E0
:101E30000A6822F00E020A600A6822F001020A60B3
:101E400045F25742C5F6020291420EDC45F22F429E
:101E5000C5F60202914217DC45F20842C5F60202BD
:101E6000914226D045F21C421FE045F27F42C5F662
:101E70000202914211DC45F25842C5F6020291423B
:101E800017D045F26C4210E045F23042C5F602022E
:101E900091420ED045F2444207E045F29442C5F625
:101EA0000202914205D045F28042C5F602029142FB
:101EB0001AD1016E01230A6822F480720A60D0E907
:101EC000161202F01F0203FA02F24A60D0E9191258
:101ED0004A60C16E00291FBF0A6822F480720A603E
:101EE000D0E91C1218BF4A60012180F8351000218A
:101EF00080F83410026D22B180B590470021BDE812
:101F000080400846704700002DE9F04381B0044648
:101F1000002048F2B51140F26F49009040F2840071
:101F2000C1F64E31C4F20209C2F20040A56D00684C
:101F30002E68A0FB0108296827684F4515DC9F2003
:101F4000C4F2020087422BDC5720C4F20200874211
:101F50004EDC1020C4F2020087421EBF2820C4F2CB
:101F60000200874272D040206BE045F22F40C5F658
:101F70000200874227DC40F2B740C4F202008742E9
:101F800042DC40F27040C4F2020087421EBF40F2C1
:101F90008840C4F20200874258D040F2A04050E08E
:101FA00040F22740C4F2020087423CDCA020C4F289
:101FB000020087421EBFB820C4F20200874245D00B
:101FC00040F210403DE045F26B40C5F6020087420A
:101FD00071DC45F23040C5F6020087421EBF45F273
:101FE0004440C5F60200874278D045F2584070E080
:101FF0005820C4F2020087421EBF7020C4F20200C3
:10200000874223D088201CE040F2B840C4F202008E
:1020100087421BD045F20840C5F6020087425DD0DA
:1020200045F21C4055E040F22840C4F202008742CD
:102030001EBF40F24040C4F20200874206D040F288
:102040005840C4F20200874240F04783E06D00F040
:102050001F01082000FA01F2324200F0EA8040F24B
:102060000F40C4F20200874212DC6F20C4F202006B
:10207000874269DC3F20C4F20200874200F3A88057
:102080001020C4F20200874200F0C6802820BEE083
:102090004F4565DC40F23F40C4F20200874200F346
:1020A0009E8040F21040C4F20200874200F0B480EB
:1020B00040F22840ABE045F26C40C5F60200874292
:1020C0001EBF45F28040C5F60200874206D045F2A9
:1020D0009440C5F60200874240F0FF823A68E06D06
:1020E00000F01F0312F0040F1EBF0420984010EAF6
:1020F00001061BD1900742D50220984010EA010644
:102100003DD06860100400F1E282900609D438687E
:1021100020F00A003860012084F83500002084F89F
:102120003400E16B002940F0CD82D6E268601004F3
:1021300046D490065EBF386820F004003860216CF9
:10214000002940F0BF82C8E29F20C4F2020087420B
:102150004EDC7020C4F2020087425DD0882056E039
:1021600040F29F40C4F20200874248DC40F27040D7
:10217000C4F2020087424FD040F2884047E0100787
:1021800040F1AB8208209840084000F0A6823868F1
:10219000012120F00E003860E06D00F01F0001FA10
:1021A00000F068600020616584F8351084F8340020
:1021B000E16C00291CBF2046884701B0BDE8F083D0
:1021C000D0034CBF216CA16C002940F07B8284E2DB
:1021D0004020C4F2020087421ED0582017E040F28F
:1021E0004040C4F20200874216D040F258400EE050
:1021F000A020C4F2020087420ED0B82007E040F2CF
:10220000B840C4F20200874206D040F2A040C4F2B7
:102210000200874240F0648204203B68034208D0F9
:10222000386820F004003860AA60606D40F001005A
:102230006065012000FA01F2324271D040F20F4095
:10224000C4F20200874210DC6F20C4F20200874211
:102250001CDC3F20C4F20200874232DC1020C4F2B2
:102260000200874251D028204AE04F451ADC40F254
:102270003F40C4F2020087422ADC40F21040C4F220
:102280000200874241D040F2284039E09F20C4F24A
:102290000200874225DC7020C4F20200874234D05D
:1022A00088202DE040F29F40C4F2020087421FDCEC
:1022B00040F27040C4F20200874226D040F28840CB
:1022C0001EE04020C4F2020087421ED0582017E0D2
:1022D00040F24040C4F20200874216D040F258401B
:1022E0000EE0A020C4F2020087420ED0B82007E022
:1022F00040F2B840C4F20200874206D040F2A0404B
:10230000C4F20200874240F0ED8107F114008023FF
:10231000006818421FBFAA60606D40F0020060654F
:10232000042000FA01F232426FD040F20F40C4F2B2
:102330000200874210DC6F20C4F2020087421CDCDE
:102340003F20C4F20200874232DC1020C4F20200B7
:10235000874251D028204AE04F451ADC40F23F40E6
:10236000C4F2020087422ADC40F21040C4F20200AC
:10237000874241D040F2284039E09F20C4F2020059
:10238000874225DC7020C4F20200874234D08820C6
:102390002DE040F29F40C4F2020087421FDC40F271
:1023A0007040C4F20200874226D040F288401EE00E
:1023B0004020C4F2020087421ED0582017E040F2AD
:1023C0004040C4F20200874216D040F258400EE06E
:1023D000A020C4F2020087420ED0B82007E040F2ED
:1023E000B840C4F20200874206D040F2A040C4F2D6
:1023F0000200874240F0798102203B6803421FBF00
:10240000AA60606D40F004006065102000FA01F1E0
:10241000314200F0818040F20F40C4F20200874256
:1024200010DC6F20C4F2020087421CDC3F20C4F2A3
:102430000200874232DC1020C4F20200874251D0F1
:1024400028204AE04F451ADC40F23F40C4F2020027
:1024500087422ADC40F21040C4F20200874241D099
:1024600040F2284039E09F20C4F20200874225DC78
:102470007020C4F20200874234D088202DE040F260
:102480009F40C4F2020087421FDC40F27040C4F259
:102490000200874226D040F288401EE04020C4F26D
:1024A000020087421ED0582017E040F24040C4F29C
:1024B0000200874216D040F258400EE0A020C4F23D
:1024C000020087420ED0B82007E040F2B840C4F2C4
:1024D0000200874206D040F2A040C4F202008742C8
:1024E00040F0058108203A68024215D0A960396899
:1024F000386811F4802F06D1C0055EBF386820F01F
:102500000800386001E0000301D4216C00E0A16CF8
:1025100000291CBF20468847E06D00F01F012020E5
:1025200000FA01F2324200F0A780206840F20F4723
:102530001023C4F20207B84210DC6F27C4F202076E
:10254000B8421CDC3F27C4F20207B84232DC102735
:10255000C4F20207B84251D028274AE048451ADCA5
:1025600040F23F47C4F20207B8422ADC40F210476B
:10257000C4F20207B84241D040F2284739E09F2711
:10258000C4F20207B84225DC7027C4F20207B84241
:1025900034D088272DE040F29F47C4F20207B842AA
:1025A0001FDC40F27047C4F20207B84226D040F266
:1025B00088471EE04027C4F20207B8421ED05827C1
:1025C00017E040F24047C4F20207B84216D040F28A
:1025D00058470EE0A027C4F20207B8420ED0B82731
:1025E00007E040F2A047C4F20207B84206D040F22A
:1025F000B847C4F20207B84218BF022307681F4257
:102600003AD0AA6094F835300268042B1BD122F02E
:1026100016020260426922F080024261226C0AB90D
:10262000A26C1AB1026822F0080202603F208840C2
:10263000A860012084F83500002084F83400216D62
:1026400000293FD149E0016852030CD4C9050ED4DA
:10265000016821F010010160012084F8350000209C
:1026600084F8340003E0080301D4616C00E0E16BFE
:1026700000291CBF20468847606D70B3606D10F064
:10268000010F1DD004204FEA982184F835002068FE
:10269000026822F001020260009A01328A4200922E
:1026A00003D8026812F0010FF6D10068012100F092
:1026B000010041EA400084F83500002084F834002D
:1026C000E16C51B12046884701B0BDE8F083D003EA
:1026D00054BF616CE16B0029F4D101B0BDE8F08317
:1026E00008209AE50023384612E6002085E60420FB
:1026F000F9E60000000000002DE9F047044601F073
:1027000037F80546002C04BF0120BDE8F08720689B
:1027100040F26F48C4F20208404515DC9F21C4F224
:10272000020188422BDC5721C4F20201884250DCAE
:102730001021C4F2020188421EBF2821C4F2020106
:10274000884274D040216DE045F22F41C5F6020168
:10275000884227DC40F2B741C4F20201884244DCDF
:1027600040F27041C4F2020188421EBF40F288412B
:10277000C4F2020188425AD040F2A04152E040F235
:102780002741C4F2020188423EDCA021C4F20201CA
:1027900088421EBFB821C4F20201884247D040F2ED
:1027A00010413FE045F26B41C5F60201884200F35B
:1027B0008F8045F23041C5F6020188421EBF45F2C6
:1027C0004441C5F60201884200F0958045F2584127
:1027D0008CE05821C4F2020188421EBF7021C4F26D
:1027E0000201884223D088211CE040F2B841C4F2A3
:1027F000020188421BD045F20841C5F60201884219
:1028000079D045F21C4171E040F22841C4F2020146
:1028100088421EBF40F24041C4F20201884206D005
:1028200040F25841C4F20201884240F0968140F2E1
:102830000F490221C4F2020984F8351000214845ED
:1028400084F8341012DC6F21C4F20201884220DCCB
:102850003F21C4F20201884200F3EB801021C4F250
:102860000201884200F00781282101E140451EDC79
:1028700040F23F41C4F20201884200F3E18040F29D
:102880001041C4F20201884200F0F58040F2284174
:10289000EEE09F21C4F20201884200F3DA80702149
:1028A000C4F20201884200F0E6808821E0E040F2B4
:1028B0009F41C4F20201884200F3D28040F270418D
:1028C000C4F20201884200F0D68040F28841CFE095
:1028D00045F26C41C5F6020188421EBF45F28041B7
:1028E000C5F60201884206D045F29441C5F60201C0
:1028F000884240F03281022104F1180E84F835102C
:10290000002184F834100268D4E902A3D4E90476E3
:102910009EE82050BAF1800F6FF3101208BF4FF4F9
:102920008041BAF1400F42EAD30220F0FF0308BF12
:10293000102111434CF6CD4241EAD701CCF6CC42EE
:1029400041EAD60141EAD50141EADC0141EA1E1122
:1029500001604AF6F831CAF2FD710144A1FB02128E
:102960004FF6FC71C3F6FF7101EA9201C4E916311A
:102970001C2101EA9201012202FA01F1596040454D
:1029800040F3958145F22F41C5F60201884215DCDE
:1029900040F2B741C4F20201884225DC40F27041A6
:1029A000C4F2020188421EBF40F28841C4F2020113
:1029B000884200F0C48140F2A041BBE145F26B4186
:1029C000C5F6020188421FDC45F23041C5F602011E
:1029D00088421EBF45F24441C5F60201884200F01C
:1029E000AE8145F258411EE040F2B841C4F2020106
:1029F00088421EBF45F20841C5F60201884200F038
:102A00009E8145F21C410EE045F26C41C5F6020183
:102A100088421EBF45F29441C5F60201884200F08B
:102A20008E8145F28041C5F60201884200F087811F
:102A30005AE24021C4F2020188421CD0582117E01A
:102A400040F24041C4F20201884214D040F25841A1
:102A50000EE0A021C4F2020188420CD0B82107E0A8
:102A600040F2B841C4F20201884204D040F2A041D1
:102A7000C4F202018842016821F00101016000E016
:102A80002068016811F0010F06D000F071FE401BB4
:102A90000528F5D9202061E0016848F23F02D4E919
:102AA00002A6CFF610620A40D4E90471D4E906C345
:102AB000D4E9085E42EA0A0232433A43BEF1040F07
:102AC00041EA020141EA0C0141EA030141EA05023F
:102AD00002BFD4E90B13114341EA030241F20001A2
:102AE000C5F600410968B1F1005F1DD36168A1F12D
:102AF0002906292E18D8DFE806F015151515151525
:102B00001717171717171717171717171717171755
:102B10001515151517171717151517171717171751
:102B20001515151542F480120260BEF1040F4169BB
:102B300021F0070141EA0E0231D1D4E90A6532439E
:102B40006DB3BCF5005F10D0BCF1000F1AD1022E9E
:102B50001BD0012E0FD0C6B121E0402060650320BC
:102B600084F835000120BDE8F087032E17D8DFE890
:102B700006F00F0C0F02A5F1C071B1FA81F14B09FB
:102B800033B90CE0032E03D309D1C5F3006333B18D
:102B900040206065012084F83500BDE8F087484595
:102BA000426110DC6F21C4F2020188421CDC3F212B
:102BB000C4F20201884232DC1021C4F202018842D0
:102BC00051D028214AE040451ADC40F23F41C4F28E
:102BD000020188422ADC40F21041C4F2020188421C
:102BE00041D040F2284139E09F21C4F202018842DD
:102BF00025DC7021C4F20201884234D088212DE006
:102C000040F29F41C4F2020188421FDC40F2704151
:102C1000C4F20201884226D040F288411EE04021E1
:102C2000C4F2020188421ED0582117E040F2404110
:102C3000C4F20201884216D040F258410EE0A021B1
:102C4000C4F2020188420ED0B82107E040F2B84138
:102C5000C4F20201884206D040F2A041C4F202014F
:102C6000884240F048816FF00F014AF6AB2251FADA
:102C700080F1CAF6AA22A1FB02235F29C3F3021244
:102C800049F29C43C0F600039B5C40F2FF3220EA0D
:102C90000202E36588BF42F0040203F01F013F23F4
:102CA000A26503FA01F1916040453FF76BAE9F21A9
:102CB000C4F20201884210DC5721C4F202018842AA
:102CC0001EDC1021C4F2020188421EBF2821C4F27A
:102CD0000201884233D040212CE040F22741C4F267
:102CE0000201884218DCA021C4F2020188421EBF02
:102CF000B821C4F20201884221D040F2104119E00B
:102D00005821C4F2020188421EBF7021C4F20201A0
:102D1000884214D088210DE040F22841C4F202011B
:102D200088421EBF40F24041C4F20201884206D0F0
:102D300040F25841C4F20201884240F0D58045F289
:102D4000434E40F6000C45F29443C5F6020EC4F221
:102D5000020CC5F6020370450EDD45F26B41C5F667
:102D60000201884217DC45F24441C5F6020188425F
:102D70001DD045F2584116E045F20841C5F6020162
:102D800088421EBF45F21C41C5F6020188420ED0A2
:102D900045F2304107E045F28041C5F60201884224
:102DA00005D045F26C41C5F60201884245D1C2B258
:102DB000A2F108014CF6CD4203F57B76CCF6CC426D
:102DC000A1FB0212150903F55B7202EB850205F007
:102DD0001F010125BAF1800F05FA01F5C4E9182693
:102DE000A56606BF002161606168CFB2013907297D
:102DF0001760756018D8791E08291AD245F6001692
:102E000001257045C5F6020638DD45F26B42C5F670
:102E10000202904241DC45F24442C5F60202904271
:102E20004BD045F2584240E00020C4E91B006067E7
:102E30005AE0D4E91B02616F53E0C2B29842B7D0A6
:102E4000A2F110014AF6AB2240F20F47CAF6AA22BD
:102E5000C4F20207A1FB0212B8424FEA12164FF069
:102E60000801354688BF01EB121507F1AA01624639
:102E7000884228BF35460CF18006A6E745F2084295
:102E8000C5F6020290421EBF45F21C42C5F6020280
:102E9000904212D045F2304207E045F26C42C5F64E
:102EA0000202904209D045F28042C5F602029042E9
:102EB00003D0C01AB0FA80F04509002D30460CF559
:102EC000A0724FF0010308BF0CF58070002D00EBDD
:102ED000810018BF06F1400203FA01F1C4E91B02A8
:102EE000616700230360516000200121606584F860
:102EF0003510BDE8F087E36D20F0FF02CDE600005D
:102F000070B5F0B390F83440012C02BF0220C0B27B
:102F100070BD012480F8344090F83540012C2AD14E
:102F2000022440F26F4E80F835400024C4F2020EB5
:102F30004465D0F800C0DCF80040F44524F00104FA
:102F4000CCF80040846D1FDC9F25C4F20205AC451F
:102F500035DC5725C4F20205AC4558DC1025C4F217
:102F60000205AC451EBF2825C4F20205AC4500F0A1
:102F70008F80402574E04FF400614165002180F8A6
:102F800034100120C0B270BD45F22F45C5F60205D0
:102F9000AC4527DC40F2B745C4F20205AC4542DC43
:102FA00040F27045C4F20205AC451EBF40F28845B0
:102FB000C4F20205AC456BD040F2A04550E040F2AF
:102FC0002745C4F20205AC453CDCA025C4F202054D
:102FD000AC451EBFB825C4F20205AC4558D040F23E
:102FE00010453DE045F26B45C5F60205AC453CDCBD
:102FF00045F23045C5F60205AC451EBF45F24445D5
:10300000C5F60205AC4543D045F258453BE058258E
:10301000C4F20205AC451EBF7025C4F20205AC45E2
:1030200036D088251CE040F2B845C4F20205AC4514
:103030001EBF45F20845C5F60205AC4528D045F24D
:103040001C4520E040F22845C4F20205AC451EBFF5
:1030500040F24045C4F20205AC4519D040F2584553
:10306000C4F20205AC4513D064E245F26C45C5F6E6
:103070000205AC451EBF45F29445C5F60205AC45B8
:1030800006D045F28045C5F60205AC4540F05282B7
:10309000D0E919566E60C56E002D1CBFD0E91C56D4
:1030A0006E60F44515DC9F25C4F20205AC452BDCAF
:1030B0005725C4F20205AC454EDC1025C4F20205CA
:1030C000AC451EBF2825C4F20205AC4572D0402590
:1030D0006BE045F22F45C5F60205AC4527DC40F212
:1030E000B745C4F20205AC4542DC40F27045C4F27B
:1030F0000205AC451EBF40F28845C4F20205AC454E
:1031000058D040F2A04550E040F22745C4F20205F5
:10311000AC453CDCA025C4F20205AC451EBFB82579
:10312000C4F20205AC4545D040F210453DE045F201
:103130006B45C5F60205AC454ADC45F23045C5F69F
:103140000205AC451EBF45F24445C5F60205AC4537
:1031500051D045F2584549E05825C4F20205AC4526
:103160001EBF7025C4F20205AC4523D088251CE0A3
:1031700040F2B845C4F20205AC451BD045F2084503
:10318000C5F60205AC4536D045F21C452EE040F2AE
:103190002845C4F20205AC451EBF40F24045C4F2CA
:1031A0000205AC4506D040F25845C4F20205AC45D4
:1031B00040F0C081C56D3F2605F01F0506FA05F5F4
:1031C000A560DCF8004024F48024CCF8004019E02D
:1031D00045F26C45C5F60205AC451EBF45F280457B
:1031E000C5F60205AC4506D045F29445C5F6020584
:1031F000AC4540F09F81C56D012605F01F0506FA1C
:1032000005F56560CCF804308368402B0B4608BF99
:103210001346CCF8083008BF0A46B721C4F20201B1
:10322000CCF80C208C4513DD40F25741C4F202016A
:103230008C451EDC40F22741C4F202018C4533DC90
:10324000B821C4F202018C454BD040F2104143E05A
:103250005721C4F202018C451ADD8721C4F2020114
:103260008C452ADC5821C4F202018C4539D07021EA
:1032700032E040F28741C4F202018C4524DC40F286
:103280005841C4F202018C452BD040F2704123E03A
:103290001021C4F202018C451EBF2821C4F2020194
:1032A0008C451ED0402117E040F22841C4F20201B3
:1032B0008C4516D040F240410EE08821C4F2020154
:1032C0008C450ED0A02107E040F2A041C4F20201DB
:1032D0008C4506D040F28841C4F202018C4540F092
:1032E0002981DCF800100B2262F34401CCF80010B5
:1032F000016C29B1DCF8001041F00801CCF8001095
:10330000F44516DC9F21C4F202018C452CDC5721C8
:10331000C4F202018C454FDC1021C4F202018C453D
:103320001EBF2821C4F202018C4500F08580402197
:103330006BE045F22F41C5F602018C4527DC40F2D7
:10334000B741C4F202018C4542DC40F27041C4F244
:1033500002018C451EBF40F28841C4F202018C4537
:103360006AD040F2A04150E040F22741C4F202018D
:103370008C453CDCA021C4F202018C451EBFB82163
:10338000C4F202018C4557D040F210413DE045F2B5
:103390006B41C5F602018C453CDC45F23041C5F677
:1033A00002018C451EBF45F24441C5F602018C4521
:1033B00042D045F258413BE05821C4F202018C450D
:1033C0001EBF7021C4F202018C4535D088211CE05B
:1033D00040F2B841C4F202018C451EBF45F20841DB
:1033E000C5F602018C4527D045F21C4120E040F291
:1033F0002841C4F202018C451EBF40F24041C4F294
:1034000002018C4518D040F25841C4F202018C45AB
:1034100012D086E045F26C41C5F602018C451EBF14
:1034200045F29441C5F602018C4505D045F2804134
:10343000C5F602018C4574D1016E0A6812F4803F12
:103440001EBF0A6842F480720A60C06E00281EBF68
:10345000016841F48071016040F20F40C4F2020043
:10346000844510DC6F20C4F2020084451CDC3F2040
:10347000C4F20200844532DC1020C4F2020084450C
:103480004FD028204AE0F4451ADC40F23F40C4F215
:10349000020084452ADC40F21040C4F20200844558
:1034A0003FD040F2284039E09F20C4F2020084451A
:1034B00025DC7020C4F20200844532D088202DE043
:1034C00040F29F40C4F2020084451FDC40F270408D
:1034D000C4F20200844524D040F288401EE040201F
:1034E000C4F2020084451CD0582017E040F240404E
:1034F000C4F20200844514D040F258400EE0A020EF
:10350000C4F2020084450CD0B82007E040F2B84075
:10351000C4F20200844504D040F2A040C4F202008C
:103520008445DCF8000040F00100CCF800000020E9
:10353000C0B270BDDCF8001040F2B842C4F2020222
:1035400094453FF4D0AE052262F34301CCF800105D
:10355000016C00293FF4D4AEDCF8001041F0040106
:10356000CCE600000000000070B505466E1C00F0BF
:10357000FFF8044636B140F28C00C2F200400078F9
:10358000054401E04FF0FF3500F0F2F8001BA842BF
:10359000FAD370BD000000002DE9F04F82B00E6834
:1035A000002E00F0CF8042F200420A274FF0000ABE
:1035B0000125C5F60202904200F1264202F1FF7297
:1035C00008BF09274FEAB223092B38BF4FEAB227B9
:1035D00000970027A5F10109012202FA09FC16EA69
:1035E0000C0800F0A5804E6806F0030BABF1010E4D
:1035F000BEF1010F14D88468032202FA07F324EA0B
:103600000303CC68BC4023438360C6F300134468C3
:1036100003FA09F324EA0C042343436005E000BFE6
:10362000BBF1030F4FF0030223D0C46802FA07F383
:10363000BBF1020F24EA03038C6804FA07F443EA9F
:103640000403C36015D10AF01C030F2606FA03FC1D
:103650004FF6FC76C7F6FF7606EA59040444266A5C
:1036600026EA0C0C0E6906FA03F343EA0C03236204
:103670004E6802FA07F4026806F0030316F4403FAE
:1036800003FA07F322EA040242EA030202604FD07F
:1036900044F2F4420AF00C060F24C5F60202B440CC
:1036A00013461A6842F002021A601A6840F2084390
:1036B000C5F600039C4602F002020192019A29F02D
:1036C000030252F80C30A343009C04FA06F633437D
:1036D0004FF0B04642F80C3032684B6822EA0802DC
:1036E00013F4801F18BF42EA080213F4001F32606F
:1036F00040F20402C5F600021646326822EA0802C9
:1037000018BF42EA080213F4003F3260D6F8802066
:1037100022EA080218BF42EA080213F4803FC6F802
:103720008020F26F22EA080218BF42EA0802F2671C
:103730000E680AF1040A023736FA05F205F10105AE
:103740007FF448AF02B0BDE8F08F00000000000039
:10375000002A08BF090481617047000000000000D2
:1037600041F20000C5F600400068000C7047000000
:1037700040F28C00C2F200408068704700000000F8
:1037800040F28C00C2F200400178826811448160EE
:10379000704700000000000080B5032000F0B0F882
:1037A00001F036F944F2184149F27443C5F60201BA
:1037B000C0F600030A68C2F3032209689A5C01F0AC
:1037C0000F01595C02F01F02D04040F28802C2F2A1
:1037D000004201F01F0120FA01F1116040F2840162
:1037E000C2F200410860002000F00AF800281CBF67
:1037F000012080BD00F02CF8002080BD00000000FA
:1038000070B540F28C060446C2F2004630780028BB
:1038100002BF0125284670BD4FF47A71B1FBF0F06C
:1038200040F28401C2F200410968B1FBF0F001F0FE
:1038300063FC01250F2C08D838B94FF0FF30214622
:103840000022002500F028F87460284670BD0000B2
:1038500081B044F2F440C5F60200016841F0020173
:103860000160006800F0020000900098052001B09F
:1038700000F046B8000000000028B8BF704700F014
:103880001F010122400902FA01F14EF20012CEF2AC
:10389000000242F82010704710B500F00F034EF6FA
:1038A0000C5E00F1604CB0F1FF3FA3F10403CEF2D7
:1038B000000E734403F10C04C8BF0CF56444DEF839
:1038C0000000C0F3022000F1040CC31E80F00700CA
:1038D000BCF1070F4FF0010C38BF0023042828BFAC
:1038E00004200CFA00F0013808400CFA03F10F3103
:1038F0009840114008430001207010BD00000000F6
:103900004EF60C514FF6FF03CEF200010A681A4042
:1039100060F30A2242F0806040F0FD70086070475A
:10392000B0B544F60C05C5F602052A68296812F000
:10393000040F05D101F00701081A18BF0120B0BD1E
:1039400021F0070108432860FFF712FF044600BF7B
:1039500055F8080C10F4005F1CBF0020B0BDFFF745
:1039600007FF001BB0F57A7F84BF0120B0BDEFE7F1
:1039700080B500F0C5FF44F2204149F27442C5F61B
:103980000201C0F600020968C1F30211515C01F0A6
:103990001F01C84080BD000080B544F2384CC5F618
:1039A000020C5CF810EC5CF8102C5CF80C1CDCF8D9
:1039B0000430C1F30011C2F305324942002A01EA82
:1039C000D3016FF35F3100EE101AB8EE400A22D037
:1039D0000EF00303022B28D0012B21D003BB02EEF3
:1039E000102A9FED461AB8EE422A5CF8381C20EEE9
:1039F000010A11F0200F64D1DCF800109FED411A8C
:103A00006FF35F2181EE022A03EE101AB8EE433AFB
:103A100030EE031A1DE00021C0E90011816080BD75
:103A2000DCF800109FED362A03E0DCF800109FED73
:103A3000322A01EE102A6FF35F219FED303AB8EE83
:103A4000414A01EE101AB8EE411A82EE042A00EE45
:103A5000031ADCF80010B7EE000A31EE001A22EE6D
:103A6000011AC1F3462103EE101AB8EE433A33EEC1
:103A7000002A81EE022ABCEEC22A80ED002ADCF880
:103A80000010C1F3064102EE101AB8EE422A32EEDF
:103A9000002A81EE022ABCEEC22A80ED012ADCF85F
:103AA0000010C1F3066102EE101AB8EE422A32EE9F
:103AB000000A81EE000ABCEEC00A10EE101A816006
:103AC00080BD5CF8381C49F20002C0F2D032C1F36C
:103AD000C10122FA01F1DCF8002003EE101A6FF3A5
:103AE0005F2201EE102AB8EE411AB8EE433A30EEEA
:103AF000011A83EE022AACE720BCBE4B000000395D
:103B00000024744A0024744C80B544F2404CC5F63D
:103B1000020C5CF818EC5CF8182C5CF8141CDCF84F
:103B20000430C1F30021C2F305524942002A01EAE0
:103B3000D3016FF35F3100EE101AB8EE400A22D0C5
:103B40000EF00303022B28D0012B21D003BB02EE81
:103B5000102A9FED461AB8EE422A5CF8401C20EE6F
:103B6000010A11F0200F64D1DCF800109FED411A1A
:103B70006FF35F2181EE022A03EE101AB8EE433A8A
:103B800030EE031A1DE00021C0E90011816080BD04
:103B9000DCF800109FED362A03E0DCF800109FED02
:103BA000322A01EE102A6FF35F219FED303AB8EE12
:103BB000414A01EE101AB8EE411A82EE042A00EED4
:103BC000031ADCF80010B7EE000A31EE001A22EEFC
:103BD000011AC1F3462103EE101AB8EE433A33EE50
:103BE000002A81EE022ABCEEC22A80ED002ADCF80F
:103BF0000010C1F3064102EE101AB8EE422A32EE6E
:103C0000002A81EE022ABCEEC22A80ED012ADCF8ED
:103C10000010C1F3066102EE101AB8EE422A32EE2D
:103C2000000A81EE000ABCEEC00A10EE101A816094
:103C300080BD5CF8401C49F20002C0F2D032C1F3F2
:103C4000C10122FA01F1DCF8002003EE101A6FF333
:103C50005F2201EE102AB8EE411AB8EE433A30EE78
:103C6000011A83EE022AACE720BCBE4B00000039EB
:103C70000024744A0024744C2DE9F047044644F2B1
:103C80002C48E078C5F60208000726D5A06E4FEA5A
:103C9000305103290AD8DFE801F0020B1119D8F8D6
:103CA000001041F40031C8F800100FE0012615E0C3
:103CB00004F10800022103F02FFA04E004F12800C7
:103CC000022103F0BDFA064646B9A06ED8F82410CA
:103CD00021F440110843C8F8240000266078C0078A
:103CE00001D135462BE0A06D04280DD83546DFE81C
:103CF00000F0030E141A1A00D8F80000354640F4FC
:103D00000030C8F800000EE00125012718E004F19A
:103D10000800002103F000FA04E004F1280000216B
:103D200003F08EFA0546002D2F4609D1D8F824005D
:103D3000A16D002520F007000843C8F8240037468D
:103D4000607880072BD5E06D4FEAB01004280BD8BF
:103D5000DFE800F0030D13191900D8F8000040F453
:103D60000030C8F800000EE00125012618E004F13B
:103D70000800002103F0D0F904E004F1280000213C
:103D800003F05EFA0546002D2E4609D1D8F824002E
:103D9000E16D002520F4E0700843C8F824003E4699
:103DA000607840072ED5D4F8A8004FEA7050042858
:103DB0000BD8DFE800F0030E141A1A00D8F8000040
:103DC00040F40030C8F800000FE001254FF0010971
:103DD00019E004F10800002103F09EF904E004F169
:103DE0002800002103F02CFA0546002DA9460AD12F
:103DF000D8F82C00D4F8A810002520F4600008435F
:103E0000C8F82C00B146607800072DD5D4F8AC0076
:103E10004FEA306004280BD8DFE800F0030D1319D7
:103E20001900D8F8000040F40030C8F800000EE097
:103E30000125012719E004F10800002103F06CF9C5
:103E400004E004F12800002103F0FAF90546002DF2
:103E50002F460AD1D8F82C00D4F8AC10002520F059
:103E6000E0600843C8F82C004F46E078800724D56E
:103E7000E06C4FEA301003280AD8DFE800F01202A5
:103E80000C12D8F8000040F40030C8F8000008E038
:103E90000125012612E004F10800022103F03CF99B
:103EA0000546002D2E4609D1D8F82000E16C0025EA
:103EB00020F030000843C8F820003E466078C00675
:103EC0002BD5206E4FEA303004280BD8DFE800F005
:103ED000030D13191900D8F8000040F40030C8F899
:103EE00000000EE00125012718E004F10800002180
:103EF00003F012F904E004F12800002103F0A0F916
:103F00000546002D2F4609D1D8F82400216E002542
:103F100020F4E0400843C8F8240037466078800663
:103F200024D5606E4FEA304005280AD8DFE800F05B
:103F300012030C12121204F10800012103F0ECF834
:103F400007E00125012612E004F12800012103F019
:103F500077F90546002D2E4609D1D8F82400616E68
:103F6000002520F4E0200843C8F824003E4660788D
:103F7000400626D5D4F8B0004FEA307005280AD89C
:103F8000DFE800F012030C12121204F10800012104
:103F900003F0C2F807E00125012713E004F128002F
:103FA000012103F04DF90546002D2F460AD1D8F81E
:103FB0002C00D4F8B010002520F0E0400843C8F8E9
:103FC0002C0037466078000620D5206F90B1B0F104
:103FD000005F09D0B0F1805F2AD1D8F8000040F42A
:103FE0000030C8F8000005E004F10800012103F0EA
:103FF00093F80546002D2E4609D1D8F82400216FEC
:10400000002520F040500843C8F824003E46E078E0
:10401000C00726D0A06C03280DD8DFE800F01602F8
:104020001016D8F8000040F40030C8F800000CE08A
:1040300001250126EBE701254FF0010912E004F10B
:104040000800022103F068F80546002DA94609D1B1
:10405000D8F82000A16C002520F003000843C8F820
:104060002000B146A078400601D44F4618E0D8F8A9
:10407000D40340F48070C8F8D403FFF779FB0646F8
:10408000D8F8D40310F4807F07D1FFF771FB801BB1
:104090006428F5D90325032702E0002D2F4612D00E
:1040A0002078C00755D0E06F4FEAF00005283BD8D4
:1040B000DFE800F043033D43434304F108000121DE
:1040C00003F02AF838E0D8F84410D4F8B40041409E
:1040D00011F4407F11D0D8F84410D8F8442042F4AD
:1040E000803221F44071C8F84420D8F8442022F4EA
:1040F0008032C8F84420C8F84410B0F5807F40F002
:104100008C82FFF735FB064641F2883A03250327E8
:10411000D8F8440010F0020F40F07D82FFF728FB32
:10412000801B5045F4D9BBE70125012612E004F1BC
:104130002800012103F084F80546002D2E4609D100
:10414000D8F82800E16F002520F038000843C8F8AF
:1041500028003E462078800722D5A06F05280AD87F
:10416000DFE800F012030C12121204F10800012122
:1041700002F0D2FF07E00125012712E004F1280038
:10418000012103F05DF80546002D2F4609D1D8F82E
:104190002800A16F002520F007000843C8F8280078
:1041A00037462078400724D5D4F8940005280AD84B
:1041B000DFE800F012030C12121204F108000121D2
:1041C00002F0AAFF07E00125012613E004F1280010
:1041D000012103F035F80546002D2E460AD1D8F806
:1041E0002C00D4F89410002520F007000843C8F8EC
:1041F0002C003E462078800626D5D4F890004FEA61
:10420000307005280AD8DFE800F012030C121212F1
:1042100004F10800002102F07FFF07E001250127DB
:1042200013E004F12800022103F00AF80546002DEE
:104230002F460AD1D8F82800D4F89010002520F095
:10424000E0400843C8F8280037462078400626D5C5
:10425000D4F89C004FEAB02005280AD8DFE800F027
:1042600012030C12121204F10800002102F054FF94
:1042700007E00125012613E004F12800022102F0E5
:10428000DFFF0546002D2E460AD1D8F82C00D4F8C1
:104290009C10002520F4E0500843C8F82C003E464E
:1042A0002078000626D5D4F8A0004FEA7030052803
:1042B0000AD8DFE800F012030C12121204F1080011
:1042C000002102F029FF07E00125012713E004F196
:1042D0002800022102F0B4FF0546002D2F460AD126
:1042E000D8F82C00D4F8A010002520F46040084332
:1042F000C8F82C003746206810F0080F16D0D4F804
:104300008410B1F5805F0AD104F12800022102F087
:1043100097FF002818BF01272068D4F88410D8F828
:10432000282022F440521143C8F82810C10616D59F
:10433000D4F89810B1F5807F0AD104F12800022149
:1043400002F07EFF002818BF01272068D4F89810DB
:10435000D8F82C2022F440721143C8F82C10000326
:1043600021D5D4F8A400B0F5003F0FD0B0F5803FC0
:1043700006D078BB04F10800002102F0CDFE04E075
:1043800004F12800022102F05BFF0546002D2E46B5
:104390000AD1D8F82C00D4F8A410002520F440301D
:1043A0000843C8F82C003E46A078400728D5D4F82A
:1043B0008800B0F5401F16D0B0F5001F0DD0B0F545
:1043C000801F40F02081D8F8000040F40030C8F889
:1043D000000008E001250126E6E704F1280001219C
:1043E00002F02EFF0546002D2F460AD1D8F82800EE
:1043F000D4F88810002520F440100843C8F828009D
:104400003746A078C00701D13E4620E0206DB0F5C8
:10441000803F07D0C8B9D8F8000040F40030C8F891
:10442000000005E004F10800022102F075FE0546D7
:10443000002D2E460BD1D8F82000216D002520F448
:1044400080300843C8F82000DEE7012501262168F6
:1044500011F0005F03D160688A030CD450E004F1CE
:104460002800022102F0ECFE002818BF0126D4E942
:1044700000108A0344D5D4F880206FF0010303EBC9
:104480003223022B0BD34FEA322343B1012B40F0EE
:10449000BD80D8F8003043F40033C8F8003045B38D
:1044A000CA0230D4CA0038D48A0241D44A0049D45E
:1044B000B1F1FF3F56DD09025ED4C10767D1810724
:1044C00070D441077AD4010700F18480C10600F15D
:1044D0008D80800607D504F12800022102F0B0FE8D
:1044E000002818BF0546002D18BF01252846BDE845
:1044F000F087D8F8283023F440731A43C8F82820EE
:104500003546CA02CED5D8F82420636F22F0004287
:104510001A43C8F82420CA00C6D558F81C2CD4F871
:10452000B83022F480421A4348F81C2C8A02BDD5C8
:10453000D8F82420E36E22F080721A43C8F82420B1
:104540004A00B5D558F81C2C22F4004248F81C2C1F
:10455000D4F8BC2058F81C3C1A4348F81C2CB1F184
:10456000FF3FA8DCD8F82020636D22F040521A43A8
:10457000C8F820200902A0D5D8F82810D4F88C203B
:1045800021F440011143C8F82810C10797D004F165
:104590000800002102F0C0FD002818BF0546606831
:1045A00081078ED504F10800012102F0B5FD002835
:1045B00018BF0546606841077FF585AF04F1080024
:1045C000022102F0A9FD002818BF05466068010716
:1045D0007FF57CAF04F12800002102F031FE0028B5
:1045E00018BF05466068C1067FF573AF04F1280067
:1045F000012102F025FE002818BF054660688006EC
:104600007FF571AF67E701250127FAE60125CA02A8
:104610007FF548AF77E7D4F8B40058F81C1C00F4D5
:1046200040720025B2F5407F21F47C5101BF4FF666
:10463000CF72C0F2FF0202EA101211436FF31F3073
:1046400048F81C1CD8F844100843C8F844000CE58E
:104650002DE9F04381B004468946002C00F090809B
:1046600042F20008C5F20028D8F8000000F00F0060
:1046700048450ED2D8F8000020F00F0040EA0900AB
:10468000C8F80000D8F8000000F00F00484540F0DE
:10469000D180206844F21847C5F6020710F0040FD5
:1046A00070D101077CD4C10600F18880810600F139
:1046B0009380810700F19E80C10740F0A9808107A7
:1046C0000AD5E1683A6802F00F0291423FBF3A68AA
:1046D00022F00F0211433960D8F8001001F00F01E9
:1046E00049450ED9D8F8001021F00F0141EA09011F
:1046F000C8F80010D8F8001001F00F01494540F04B
:10470000D580410700F19880010700F1A380C10620
:1047100000F1AE8080060AD5E069B96801F0700149
:1047200088423FBFB96821F070010843B86000F0CB
:104730006FF9396849F27442C0F60002C1F30321EF
:10474000515C01F01F01C840396801F00F01515C54
:1047500040F28802C2F2004201F01F0120FA01F18A
:10476000116040F28401C2F20041086040F2900002
:10477000C2F20040006801B0BDE8F043FFF740B866
:104780000120B3E021693A6802F07002914281BFD2
:104790003A6822F070021143396001077FF583AF58
:1047A00061697A6802F07002914281BF7A6822F0F2
:1047B000700211437960C1067FF578AFA1697A680C
:1047C00002F4E062914281BF7A6822F4E062114310
:1047D000796081067FF56DAFE169BA6802F0700219
:1047E000914281BFBA6822F070021143B96081071B
:1047F0007FF562AFE1683A6802F00F02914281BF33
:104800003A6822F00F0211433960C1073FF457AFF5
:104810003868A16820F47060084338606068032835
:1048200035D002283AD157F8181C11F4003F43D173
:1048300001205BE0012059E021693A6802F0700232
:1048400091423FBF3A6822F070021143396001077C
:104850007FF55DAF61697A6802F0700291423FBFF7
:104860007A6822F0700211437960C1067FF552AF79
:10487000A1697A6802F4E06291423FBF7A6822F44B
:10488000E0621143796080067FF551AF44E757F845
:10489000181C11F0007F0FD1012027E057F8181CD9
:1048A000012805D1C90507D401201FE001201DE022
:1048B000490701D4012019E057F8081C21F007012D
:1048C000084347F8080CFEF753FF064641F28835C7
:1048D00057F8080C616800F03800B0EBC10F09D040
:1048E000FEF746FF801BA842F2D90320C0B201B0F8
:1048F000BDE8F083206881073FF5E3AEECE60000F9
:1049000080B500F085F844F2184149F27443C5F6C9
:104910000201C0F600030A68C2F303229A5C02F0A7
:104920001F0220FA02F2086840F28801C2F2004138
:1049300000F00F00185C00F01F0022FA00F0086081
:1049400040F28401C2F200410A6080BD0000000014
:1049500080B500F05DF844F2184C49F2744340F21F
:104960008801C5F6020CC0F60003C2F20041DCF873
:104970000020C2F303229A5C02F01F02D040DCF850
:10498000002002F00F029A5C02F01F0220FA02F2ED
:104990000A6040F28401C2F200410860DCF80400C1
:1049A000C0F30210185C00F01F0022FA00F080BD76
:1049B00080B500F02DF844F2184C49F2744340F2EF
:1049C0008801C5F6020CC0F60003C2F20041DCF813
:1049D0000020C2F303229A5C02F01F02D040DCF8F0
:1049E000002002F00F029A5C02F01F0220FA02F28D
:1049F0000A6040F28401C2F200410860DCF8040061
:104A0000C0F30220185C00F01F0022FA00F080BD05
:104A100080B544F2304EC5F6020E5EF8200CC0F3AD
:104A2000C20249F20000C0F2D030032A14D0022A98
:104A30004ED0002A1EBF40F60010C0F23D0080BDDF
:104A40005EF8302C12F0200F1FBF5EF8301CC1F34F
:104A5000C101C84080BD80BD5EF808CC5EF8082C5E
:104A60005EF8043CDEF8041003F00103C2F3051203
:104A70005B42002A03EAD1016FF35F3100EE101AA6
:104A8000B8EE400A04BF002080BD0CF00303022BE7
:104A900028D0012B21D003BB02EE102A9FED321A41
:104AA000B8EE422A5EF8301C20EE010A11F0200F09
:104AB00042D1DEF800009FED2E1A6FF35F2081EEE9
:104AC000022A03EE100AB8EE433A30EE031A1DE054
:104AD00047F64000C0F27D1080BDDEF800009FED7B
:104AE000232A03E0DEF800009FED1E2A01EE102AC3
:104AF0006FF35F209FED1C3AB8EE414A01EE100AB9
:104B0000B8EE411A82EE042A00EE031ADEF8000025
:104B1000B7EE000A31EE000A22EE000AC0F346208A
:104B2000013001EE100AB8EE411A80EE010ABCEE27
:104B3000C00A10EE100A80BD5EF8301CC1F3C1013E
:104B4000C840DEF8001003EE100A6FF35F2101EE9B
:104B5000101AB8EE411AB8EE433A30EE011A83EE5D
:104B6000022AD3E720BCBE4B000000390024744A5F
:104B70000024744C00000000F0B581B0044614B36A
:104B8000207844F20046C5F60206C00753D03169CA
:104B9000B06A01F03801102919D0182904BF00F0BB
:104BA0000300022813D06068C8B1B0F5803F06D07A
:104BB0003168B0F5A02F28D141F4802030603068F2
:104BC00040F4803027E00120C0B201B0F0BD306871
:104BD00010F4003F2FD0606868BB0120F4E7306814
:104BE00020F480303060306820F480203060FEF7A0
:104BF000BFFD0546306810F4003F1CD0FEF7B8FD3D
:104C0000411B03206429F5D9DEE721F480303060B0
:104C1000306820F480203060FEF7AAFD054600BF12
:104C2000306810F4003F06D1FEF7A2FD401B642857
:104C3000F6D90320C8E72078800764D53169B06AC7
:104C400011F038011BD0182908BF5FEA807016D018
:104C5000E068316800283FD021F019010843306036
:104C6000FEF786FD054600BF306810F0040F22D124
:104C7000FEF77EFD401B0228F6D90320A4E7316829
:104C8000E06811F0040F02D008B901209CE73168F8
:104C900021F0190108433060FEF76AFD054600BFA8
:104CA000306810F0040F06D1FEF762FD411B0320AF
:104CB0000229F5D988E7FEF753FD216941F2030285
:104CC00090421AD80803402908BF4FF40030716899
:104CD00021F47C31084315E021F001003060FEF73B
:104CE00047FD0546306810F0040F0CD0FEF740FD7C
:104CF000411B03200229F5D966E7706820F0FE40C9
:104D000040EA016070602078C00658D53169B06A09
:104D100001F0380108291AD0182904BF00F0030057
:104D2000012814D0E1693068B9B340F080003060E8
:104D3000FEF71EFD054600BF306810F4807F0DD1E0
:104D4000FEF716FD411B03200229F5D93CE7306828
:104D500010F4807F1CBFE06980281CD1FEF700FDA5
:104D6000216A41F2030290420CD88806202931467C
:104D700008BF4FF0804051F8042F22F0F842104352
:104D800008601CE0304650F80C2F22F07C5242EABA
:104D90000161016013E0012016E720F0800030601F
:104DA000FEF7E6FC054600BF306810F4807F06D0B1
:104DB000FEF7DEFC411B03200229F5D904E7207829
:104DC000000726D56169706F89B140F001007067F6
:104DD000FEF7CEFC054600BF706F10F0020F18D131
:104DE000FEF7C6FC401B0228F6D90320ECE620F0B3
:104DF00001007067FEF7BCFC054600BF706F10F045
:104E0000020F06D0FEF7B4FC411B03200229F5D99E
:104E1000DAE62078800626D5A169306889B140F4A9
:104E200080503060FEF7A4FC054600BF306810F4E7
:104E3000005F18D1FEF79CFC401B0228F6D9032026
:104E4000C2E620F480503060FEF792FC054600BFB9
:104E5000306810F4005F06D0FEF78AFC411B032087
:104E60000229F5D9B0E6207840070CD4676A7FB3F1
:104E7000306900F0380018282CD1B16A306B012F4E
:104E80004AD10120A0E6D6F8000440F48070C6F8AC
:104E90000004FEF76DFC0546D6F8000410F4807F90
:104EA00006D1FEF765FC401B6428F5D903208BE68C
:104EB000A068002862D0012806D0316F052840F094
:104EC000DB8041F004003067306F40F00100D9E032
:104ED000002079E6306820F080703060FEF748FCF2
:104EE0000546022F0CD100BF306810F0007F5FD064
:104EF000FEF73EFC411B03200229F5D964E600BF02
:104F0000306810F0007F00F0B380FEF731FC411BE9
:104F100003200229F4D957E6A26A01F00303934261
:104F200040F0A880E26AC1F30511914240F0BE80D2
:104F3000226B01466FF35F21013A914240F0B88045
:104F4000C0F34621626B013A914240F0B380C0F356
:104F50000641A26B013A914240F0AE80C0F3066078
:104F6000E16B0139884240F0A980706BA16CC0F3FD
:104F7000CC00814240F0A480002025E6306F20F074
:104F800001003067306F20F004003067FEF7F0FB5F
:104F9000054641F2883700BF306F10F0020F3FF432
:104FA00065AFFEF7E5FB411B0320B942F4D90BE6E0
:104FB000B06A40F2F33104F130034FF47E47884386
:104FC000D4E90A12084340EA0210B0620FCB07EBA3
:104FD000412100F2FF1089B26FF35F2008434FF4C4
:104FE000FE0101EB024101F4FE0108434FF0FE41D6
:104FF00001EB036101F0FE4108434FF6F8713063A5
:10500000F06A20F00100F062706B8843A16C40EA06
:10501000C1007063F06A216C20F00C000843F0625C
:10502000F06A616C20F002000843F062F06A40F41C
:105030008030F062F06A40F40030F062F06A40F4D0
:105040008020F062F06A40F00100F062306840F0C9
:1050500080703060FEF78CFB0446306810F0007FF3
:1050600022D1FEF785FB011B03200229F5D9ABE510
:105070000020A9E50120A7E521F001003067306F8D
:1050800020F004003067FEF773FB054641F28837D5
:10509000306F10F0020F7FF4E9AEFEF769FB411BA1
:1050A0000320B942F4D98FE500208DE501208BE57E
:1050B000012089E5012087E5012085E5012083E5C0
:1050C000F06A20F00100F062FEF752FB0546FEF7A1
:1050D0004FFBA842FBD0706B4FF6F8718843A16C70
:1050E00040EAC1007063F06A40F00100F062002005
:1050F0006AE5000000000000411E0020B0EB116FC7
:105100001CBF012070474EF21002F023CEF20002C5
:1051100051604EF62351CEF200010B7007219060D2
:1051200011607047000000007047000000000000A0
:105130007047000000000000704700000000000001
:1051400090F83C300222012B55D010B5012340F2DB
:10515000004C80F83C3080F83D20C4F2010C02681D
:10516000536842F48064D2F808E0644502BF4C689A
:1051700023F4700323430C6823F07003234353602C
:1051800041F2FF73C4F200039A420BDC40F2FF735A
:10519000C4F200039A4215DCB2F1804F1ED040F2F7
:1051A000004317E040F2FF33C4F201039A4224DCCB
:1051B00041F60003C4F200039A420FD00023C4F268
:1051C000010309E040F60003C4F200039A4205D04F
:1051D00040F60043C4F200039A4204D189682EF0DD
:1051E0008003194391600121002280F83D1080F86E
:1051F0003C20BDE81040D0B2704744F20003C4F236
:1052000001039A4218BF6245E8D0ECE700000000B5
:1052100010B50446002C04BF012010BD94F83D00D9
:1052200028B9002084F83C00204600F0BDF8022098
:1052300040F6FF3284F83D00C4F2000220680168A5
:1052400090420FDCB0F1804F1EBF40F20042C4F22A
:105250000002904217D040F60002C4F200029042D1
:1052600011D014E040F60042C4F2000290421EBF8A
:1052700040F20042C4F20102904204D00022C4F283
:105280000102904203D1A26821F0700111434FF650
:10529000FF72C4F20002904214DD43F6FF72C4F2C2
:1052A000010290421ADD44F20002C4F2010290426F
:1052B0001EBF44F60002C4F20102904226D044F21E
:1052C000004212E040F2FF72C4F20002904211DC90
:1052D000B0F1804F1AD040F2004213E00022C4F235
:1052E0000102904212D040F20042C4F20102904208
:1052F0000CD00FE040F60002C4F20002904205D04C
:1053000040F60042C4F20002904203D1226921F427
:1053100040711143A26921F0800111430160E168ED
:10532000C1626168816243F6FF71C4F20101884283
:105330000EDD44F20001C4F2010188421EBF44F6B2
:105340000001C4F2010188420DD044F2004106E0A0
:105350000021C4F20101884205D040F20041C4F2AC
:105360000101884201D1616901630121416100208D
:1053700084F8481084F83E1084F83F1084F84010F8
:1053800084F8411084F8421084F8431084F84410E3
:1053900084F8451084F8461084F8471084F83D10CE
:1053A00010BD00000000000080B582B0016840F22E
:1053B000004244F2E840C4F20002C5F60200914205
:1053C00014D0B1F1804F1CBF02B080BD0168012232
:1053D00041F0010101600221006800F0010001902C
:1053E00001981C20FEF758FA1C200EE001680022EC
:1053F00041F0020101600221006800F0020000900B
:1054000000981D20FEF748FA1D2002B0BDE880403C
:10541000FEF732BA0000000090F83D1001291CBFD1
:1054200001207047022180F83D100168C86840F0F3
:105430000100C86041F2FF70C4F2000081420BDC41
:1054400040F2FF70C4F20000814213DCB1F1804FE2
:1054500029D040F2004015E040F2FF30C4F20100D4
:10546000814214DC41F60000C4F2000081421AD0EF
:10547000002014E040F60000C4F20000814212D087
:1054800040F60040C4F2000081420CD016E044F225
:105490000000C4F20100814205D040F20040C4F295
:1054A000010081420AD188680722C0F2010202404D
:1054B0000020062A18BFB2F5803F04D0086840F0EB
:1054C000010008600020704790F83C300222012B58
:1054D00000F09F8010B501234FF6887C80F83C30A7
:1054E00080F83D208822CFF6CF7CD0F800E0CFF6C0
:1054F000CE72DEF808301A40CEF808200B686F2B09
:105500000CDDB3F1101F30DAB3F5005F3DDA702B1C
:1055100000F08180B3F5805F72D0BEE02F2B2EDDCE
:105520004F2B37DC302B62D0402B40F0B6804A68DE
:10553000C968DEF82030DEF8204024F00104CEF8FF
:105540002040DEF8184024F0F00444EA0111CEF8BF
:10555000181023F00A011143CEF82010DEF80810CD
:1055600001EA0C0141F0470148E02F21C0F210018F
:105570008B4232DCB3F1101F39D0202133E0B3B3BA
:10558000102B18BF202B32D087E056D0B3F5801FE8
:105590002DD082E0502B62D0602B7ED14A68C96842
:1055A000DEF8203023F01003CEF82030DEF818307B
:1055B00023F4704343EA0131DEF82030CEF81810AE
:1055C00023F0A00141EA0211CEF82010DEF8081005
:1055D00001EA0C0141F0670110E03021C0F2100136
:1055E0008B4204D04021C0F210018B4255D1DEF82D
:1055F000081001EA0C01194341F00701CEF8081028
:105600000022012180F83D10002180F83C10BDE807
:105610001040D0B27047D1E90123C9681A4342EA69
:105620000121DEF8082022F47F421143CEF8081051
:10563000DEF8081041F07701E0E7D1E90123C968FD
:105640001A4342EA0121DEF8082022F47F42114386
:10565000CEF80810DEF8081041F48041CEE74A6821
:10566000C968DEF82030DEF8204024F00104CEF8CE
:105670002040DEF8184024F0F00444EA0111CEF88E
:10568000181023F00A011143CEF82010DEF808109C
:1056900001EA0C0141F05701B0E70122B1E7000037
:1056A000704700000000000010B504462068016942
:1056B00011F0020F1CBFC16811F0020F15D06FF07E
:1056C0000201016101212177806910F0030F03D0ED
:1056D0002046FFF7E5FF05E0204600F0ADF8204644
:1056E00000F0AEF8002020772068016911F0040F67
:1056F0001CBFC16811F0040F15D06FF004010161E7
:1057000002212177806910F4407F03D02046FFF703
:10571000C7FF05E0204600F08FF8204600F090F823
:10572000002020772068016911F0080F1CBFC168B4
:1057300011F0080F15D06FF00801016104212177E5
:10574000C06910F0030F03D02046FFF7A9FF05E062
:10575000204600F071F8204600F072F80020207713
:105760002068016911F0100F1CBFC16811F0100F03
:1057700015D06FF01001016108212177C06910F484
:10578000407F03D02046FFF78BFF05E0204600F066
:1057900053F8204600F054F8002020772068016973
:1057A00011F0010F1CBFC16811F0010F06D06FF09E
:1057B00001010161204600F047F82068016911F0FD
:1057C000800F1CBFC16811F0800F06D06FF0800100
:1057D00001612046FFF7ACFC2068016911F4807F6D
:1057E0001CBFC16811F0800F06D06FF48071016199
:1057F0002046FFF799FC2068016911F0400F1CBF9B
:10580000C16811F0400F06D06FF0400101612046E1
:1058100000F056F82068016911F0200F1CBFC16824
:1058200011F0200F00D110BD6FF020010161204662
:10583000BDE81040FFF780BC70470000000000008A
:10584000704700000000000010B540F6AC010446AF
:10585000C2F2004120680968884210D140F6D81190
:10586000C2F20041D1F88810202908D140F6D810A2
:1058700012A10122C2F2004001F092F8206840F625
:10588000F801C2F200410968884200D010BD40F61C
:105890000030C2F20040D0F88800202818BF10BDA8
:1058A000FBF7D2FE40F6003040F2C0313422C2F2A3
:1058B0000040C2F2004101F073F810BD300000005A
:1058C000704700000000000090F88410012902BF1A
:1058D0000221C8B270472421C0F8881002681368FA
:1058E000116821F0010123F000531160002141668D
:1058F00013602022C0F8882080F88410C8B2704756
:105900007047000000000000704700000000000029
:1059100090F88420012A02BF0221C8B27047B0B5B6
:105920004FF0010E242280F884E0C0F8882002683D
:10593000D2F800C0136823F001031360936823F0CA
:10594000606319439160416EC9B1916849F2AC4EF0
:1059500049F2A445C0F6000EC0F60005C1F342614D
:105960001EF80130695C0901B1FBF3F193685B0F2C
:105970001EF80340EB5C1B01B3FBF4FE00E00121C9
:10598000A0F86AE0A0F868102021C2F800C0C0F8B2
:105990008810002180F88410BDE8B040C8B270477C
:1059A00090F88420012A02BF0221C8B27047B0B526
:1059B0004FF0010E242280F884E0C0F888200268AD
:1059C000D2F800C0136823F001031360936823F03A
:1059D000604319439160416EC9B1916849F2AC4E80
:1059E00049F2A445C0F6000EC0F60005C1F34261BD
:1059F0001EF80130695C0901B1FBF3F193685B0F9C
:105A00001EF80340EB5C1B01B3FBF4FE00E0012138
:105A1000A0F86AE0A0F868102021C2F800C0C0F821
:105A20008810002180F88410BDE8B040C8B27047EB
:105A300070470000000000007047000000000000F8
:105A400070470000000000002DE9F041044640F6D8
:105A50002F012068C26902EA010701688368202FCC
:105A60000DD101F0200703F08056374307D0616F56
:105A7000002900F0E6812046BDE8F041084740F6E5
:105A80000F074FF6FE781740CEF6FF7852D040F25F
:105A900020160125C0F20046C1F200050E401D404F
:105AA0002E4347D0D6070BD011F480761FBF0126B6
:105AB0000662D4F8906046F0010618BFC4F8906002
:105AC00003F0010697070AD5002E1FBF02270762C1
:105AD000D4F8907047F0040718BFC4F890705707C7
